:020000040800F2
:10000000C01200209D020008A1430008A34300087D
:10001000A5430008A7430008A9430008000000000A
:10002000000000000000000000000000AB430008DA
:10003000AD43000800000000AF430008B3430008D0
:10004000B7020008B7020008B7020008B7020008AC
:10005000B7020008B7020008B7020008B70200089C
:10006000B7020008B7020008B7020008773300089B
:100070007D33000883330008893300088F3300087C
:10008000953300089B330008B7020008B702000848
:10009000B7020008B7020008B7020008B70200085C
:1000A000B7020008B7020008B7020008B70200084C
:1000B000B7020008B7020008B7020008B70200083C
:1000C000B7020008B7020008B7020008B70200082C
:1000D000B70200084F1E0008631E0008791E0008C2
:1000E000B7020008B7020008B7020008B70200080C
:1000F000B7020008B7020008B7020008A1330008E1
:10010000B7020008B7020008B7020008B7020008EB
:10011000911E0008A91E0008B7020008B7020008D7
:10012000A7330008AB330008B1330008B733000829
:10013000BD330008B7020008B7020008B702000884
:10014000B7020008B7020008B7020008B7020008AB
:10015000C3330008C9330008CF330008BD1E0008B0
:10016000B7020008B7020008B7020008B70200088B
:10017000B7020008B7020008B7020008B70200087B
:10018000B7020008B7020008D51E0008ED1E0008DF
:10019000B7020008B7020008B7020008B70200085B
:1001A000B7020008B7020008B702000800F002F822
:1001B00000F065F80AA090E8000C82448344AAF19C
:1001C0000107DA4501D100F05AF8AFF2090EBAE89A
:1001D0000F0013F0010F18BFFB1A43F0010318477B
:1001E00030800000508000000A444FF0000C10F8EE
:1001F000013B13F0070408BF10F8014B1D1108BFA5
:1002000010F8015B641E05D010F8016B641E01F844
:10021000016BF9D113F0080F1EBF10F8014BAD1C94
:100220000C1B09D16D1E58BF01F801CBFAD505E0B2
:1002300014F8016B01F8016B6D1EF9D59142D6D30C
:10024000704700000023002400250026103A28BF34
:1002500078C1FBD8520728BF30C148BF0B60704738
:10026000642905F0F181002070471FB505F09EFB61
:100270009DE8030005F044FA1FBD10B510BD05F060
:1002800013FB1146FFF7F1FF04F02BF805F031FBEB
:1002900003B4FFF7F2FF03BC05F062FB0948804797
:1002A00009480047FEE7FEE7FEE7FEE7FEE7FEE758
:1002B000FEE7FEE7FEE7FEE704480549054A064B70
:1002C000704700007B440008AD010008C00C00200E
:1002D000C0120020C00E0020C00E00202849084394
:1002E00028490860704730B50F23C278017801258E
:1002F000FAB1244A126801F1E02102F4E062C2F589
:10030000E062C2F30722C2F10404D3404278A24063
:1003100084781C401443220181F80024007800F006
:100320001F018D404009800000F1E020C0F800511D
:1003300030BD01F01F0085404809800000F1E02039
:10034000C0F8805130BD104A114001430D48001FD4
:10035000016070470B4A121D0029116801D001434A
:1003600000E08143116070474FF0E02104280869E4
:1003700003D020F004000861704740F00400FAE761
:100380000000FA050CED00E080FFFF1FF94801684E
:1003900041F001010160F74A002108321160026852
:1003A000F54B1A400260031DF44A1A60F14BF44AFF
:1003B00084331A60F14A103A1B1D1A60026822F455
:1003C00080220260EB480C300160181D016070470C
:1003D000E8490022891C0A70087070470246002014
:1003E000510901290CD002290CD0E2497431096865
:1003F00002F01F02012393400B4200D001207047FE
:10040000DC49F4E7DB497031F1E718B500204FF41F
:10041000A04400903120FFF7E1FF0099491C0091B2
:10042000A14201D00028F5D03120FFF7D7FF0028E6
:1004300000D0012018BDCF4A116821F0F80141EA2F
:10044000C00010607047CF4908607047C94900225A
:1004500070310A700A70012802D0042801D10520E9
:1004600008707047C8490860704741EA82115A080D
:1004700010B5C64B029C03EB02421143014341EA13
:100480000460BC49091D086010BDBE49086670477C
:10049000800140EA0160B74940EA02708431086097
:1004A0007047B84988667047800140EA0160B149E9
:1004B00040EA0270883108607047B24908677047A7
:1004C000B049C8647047AB4B08331A68084322F040
:1004D000EC62104318607047A64B08331A68084353
:1004E00022F07842104318607047A24A083211681F
:1004F00021F003010143116070479E4808300068F5
:1005000000F00C0070479B4A0832116821F0F0019E
:10051000014311607047974A0832116821F4E05195
:10052000014311607047934A0832116821F4604119
:1005300041EAC0001060704770B58E4B08331968EF
:10054000934C11F00C0104D06610042903D0082943
:1005500003D004601BE0066019E0864A121D116892
:10056000C1F38055116801F03F0115B1B6FBF1F1FF
:1005700001E0B4FBF1F114681268C4F3881461431C
:10058000C2F30142521C5200B1FBF2F10160196842
:100590000F2202EA11117F4A545C0168E140416078
:1005A0001C68072505EA9424145D21FA04F484608C
:1005B0001B6805EA5333D25CD140C16070BDC0F303
:1005C0000121032908D16B4B08331968724A21F4C1
:1005D000F81102400A431A60664970310A68C0F394
:1005E0000B0002430A60704767494439086070474E
:1005F00065494039086070476249C1F85C0170473D
:100600005C4A8C32116821F440110143116070473B
:10061000584A8C32116821F440010143116070473F
:10062000544A8C321168401E21F01F0101431160B1
:100630007047504A8C3211686FF0FF0321F4F85173
:1006400003EB00200843106070474A4A8C3211685F
:1006500021F440310143116070475049C1F8E00175
:100660007047444A30320029116801D0014300E04C
:100670008143116070473F4A34320029116801D02C
:10068000014300E08143116070473A4A3832002943
:10069000116801D0014300E0814311607047354A81
:1006A00040320029116801D0014300E0814311600C
:1006B0007047304A44320029116801D0014300E0FC
:1006C0008143116070472B4A10320029116801D014
:1006D000014300E0814311607047264A143200292B
:1006E000116801D0014300E0814311607047214A45
:1006F00018320029116801D0014300E081431160E4
:1007000070471C4A20320029116801D0014300E0E3
:10071000814311607047174A24320029116801D0C3
:10072000014300E0814311607047124A50320029B2
:10073000116801D0014300E08143116070470D4A08
:1007400054320029116801D0014300E08143116057
:100750007047084A58320029116801D0014300E06F
:10076000814311607047034A60320029116817D035
:10077000014316E000380240FFFFF6EA1030002483
:100780000030002000004742800E47420000FFFF7B
:100790000024F40000000020FFFCFF0F001047427F
:1007A000814311607047194A0029116801D0014343
:1007B00000E081431160704714490C31012808683A
:1007C00003D020F008000860704740F00800FAE706
:1007D0000E4A573A0029117801D0014300E08143C5
:1007E0001170704709481030016841F08071016054
:1007F00070470146054A0020583A12680A4200D064
:10080000012070470149563908707047643802402A
:10081000774910B5884206D101210846FFF753FFFA
:10082000002101205BE07349884206D101210220AA
:10083000FFF749FF0021022051E06F49884206D1AD
:1008400001210420FFF73FFF0021042047E06B490E
:10085000884206D101210820FFF735FF002108203A
:100860003DE06749884206D101211020FFF72BFFA8
:100870000021102033E06349884206D10121202065
:10088000FFF721FF0021202029E05F49884206D19F
:1008900001214020FFF717FF002140201FE05B49A6
:1008A000884206D101218020FFF70DFF0021802022
:1008B00015E05749884202D1012184150AE05549C3
:1008C000884202D10121441504E0534988420AD1EB
:1008D000012104152046FFF7F6FE00212046BDE861
:1008E0001040FFF7F0BE10BDF0B5002201274FF019
:1008F000030C0B6807FA02F52B40AB422CD10668BB
:1009000053000CFA03F4A64306600E79D0F800E019
:100910009E4046EA0E0606600E79012E01D0022E98
:1009200012D18668A64386604E79D0F808E09E40D2
:1009300046EA0E0686604668AE43466045688E7994
:100940009640B6B235434560C568A543C560CC79CD
:100950009C40C3681C43C460521C102AC9D3F0BD1C
:100960004FF6FF7101600021017141718171C17108
:10097000704708B541F480320092C261C1610099AC
:10098000C161C169C069009008BD024600201269BA
:100990000A4200D001207047006980B270470246C9
:1009A000002052690A4200D001207047406980B29D
:1009B000704701837047418370470AB101837047D4
:1009C000418370474161704742694A4042617047C4
:1009D0004B07DB0E9A40C90810B500EB8100016A95
:1009E0000F249C40A1430162016A1143016210BDC2
:1009F000000002400004024000080240000C0240D7
:100A0000001002400014024000180240001C024086
:100A1000002002400024024000280240CD4910B5C9
:100A2000884206D101211020FFF775FE0021102019
:100A300020E0C949884202D101214C0429E0C7497C
:100A4000884202D101218C0423E0C549884202D1A9
:100A50000121CC041DE0C349884202D101210C05CB
:100A600017E0C149884209D101212020FFF753FE38
:100A700000212020BDE81040FFF74DBEBB49884251
:100A800002D101218C0704E0B94988420AD1012131
:100A900044052046FFF735FE2046BDE81040002102
:100AA000FFF72FBE10BD7FB50446008A0D46C988EA
:100AB00020F4405001432182A08941F20C61884317
:100AC000A9882A8911436A8902431143A181A08A16
:100AD00020F44071A8890843A0826846FFF72CFDE6
:100AE0009C48844202D0A048844201D1039800E08F
:100AF0000298A189090400EBC00101EB00102968EC
:100B000001D5490000E08900B0FBF1F06422B0FBA0
:100B1000F2F109010B096FF018056B4300EB83003C
:100B2000A3891D044FF0320306D503EBC000B0FBD0
:100B3000F2F000F0070005E003EB0010B0FBF2F06C
:100B400000F00F00084320817FBD4FF41651016073
:100B500000218180C18001810C2242818181704706
:100B600010B5028A4C8822F470630A8822438C886C
:100B7000C9880C4322431A43028210BD0021018020
:100B800041808180C18070470029818902D041F471
:100B9000005101E021F4005181817047028B02F481
:100BA0007F420283028B0A430283704700298189B6
:100BB00002D041F4004101E0C1F30E018181704790
:100BC0000029818A02D041F4006101E021F4006132
:100BD00081827047C1F30801818070478088C0F32B
:100BE00008007047028A22F00F020282028A0A433A
:100BF000028270470029818902D041F0020101E0A0
:100C000021F0020181817047828922F40062828191
:100C100082890A4382817047028A22F0200202827E
:100C2000028A0A43028270470029018A02D041F4F5
:100C3000804101E021F4804101827047818941F0C7
:100C40000101818170470029818A02D041F00801A9
:100C500001E021F0080181827047028BD2B2028349
:100C6000028B42EA0121018370470029818A02D068
:100C700041F0200101E021F020018182704700292C
:100C8000818A02D041F0100101E021F0100181823F
:100C90007047828A22F004028282828A0A43828218
:100CA00070470029818A02D041F0020101E021F061
:100CB000020181827047002A828A01D00A4300E043
:100CC0008A438282704710B5C1F3421301F01F04BA
:100CD0000121A140012B07D0022B07D01430002A9C
:100CE000026805D00A4304E00C30F8E71030F6E75C
:100CF0008A43026010BD0246002012880A4200D0DA
:100D000001207047C9430180704770B501F01F058D
:100D100001260024C1F3421306FA05F2012B0FD07D
:100D2000022B0FD0838A4FEA11210088134206FA62
:100D300001F600EA060001D000B10124204670BD92
:100D40008389F0E7038AEEE70A0A01219140C9434B
:100D500001807047001001400044004000480040FE
:100D6000004C00400050004000140140007800405A
:100D7000007C0040D24910B5884202D101214C05C7
:100D80000AE0D049884202D101218C0504E0CE4915
:100D900088420AD10121CC052046FFF7B2FC20464B
:100DA000BDE810400021FFF7ACBC10BD7FB5044684
:100DB00080880D4620F03F066846FFF7BDFBC3491B
:100DC0000298B0FBF1F189B20E43A680228822F08E
:100DD00001022280BE4B2A689A421BD85200B0FB07
:100DE000F2F080B2042800D20420491C2184A083A0
:100DF000208840F00100208020884FF6F53108401F
:100E0000A9886A89114301432180A8892989084357
:100E100020817FBDEB88A3F53F46FF3E0BD002EB60
:100E2000C20303EB0212B0FBF2F080B240F4804048
:100E3000020506D007E002EB4202B0FBF2F080B2FE
:100E4000F6E740F001004FF4967251434FF47A7286
:100E5000B1FBF2F140F40040C7E741F28831016094
:100E6000002181804BF6FF72C280018141814FF4E5
:100E70008041818170470029018802D041F0010141
:100E800001E021F00101018070470029818C02D02E
:100E900021F0100101E041F0100181847047828C43
:100EA00001F00F0122F00F021143818470470029E5
:100EB000018802D041F4807101E021F48071018049
:100EC00070470029018802D041F4007101E021F44B
:100ED00000710180704712B141F0010101E001F0A1
:100EE000FE01018270470029018802D041F480612F
:100EF00001E021F4806101807047828901F0FE01E8
:100F000022F0FE021143818170470029818902D0BD
:100F100041F0010101E021F00101818170470029C8
:100F2000018802D041F0400101E021F04001018040
:100F300070470029018802D041F4004101E0C1F36B
:100F40000E01018070470029018803D021F0800143
:100F50000180704741F08001FAE7B1F5804F818B45
:100F600002D021F4804101E041F480418183704747
:100F7000B1F5006F018803D021F400610180704752
:100F800041F40061FAE7B1F5005F018803D021F474
:100F900000510180704741F40051FAE700290188AF
:100FA00002D041F0100101E021F0100101807047F2
:100FB00001827047008AC0B270470029018802D0C0
:100FC00041F4805101E021F4805101807047B1F576
:100FD000006F018803D021F400610180704741F463
:100FE0000061FAE70029018802D041F0200101E008
:100FF00021F0200101807047008B000A7047002912
:10100000818802D041F4006101E021F40061818017
:1010100070470029818802D041F4805101E021F419
:1010200080518180704708B508440090008808BD51
:10103000002A828801D00A4300E08A4382807047F8
:10104000034600209A8A1B8B42EA034222F07F4229
:10105000914300D101207047818A008B41EA004111
:1010600021F07F4070470CB50246002000920A0F25
:1010700021F07F41019202D0009A143202E0009ADE
:10108000090C1832009212680A4200D001200CBDEF
:10109000C9438182704710B5034600209A884FF4F7
:1010A000E06404EA11449B8A224021F07F410B4214
:1010B00002D0002A00D0012010BDC94381827047B0
:1010C0000054004000580040005C004040420F00C7
:1010D000A0860100C14910B5884202D101218414C3
:1010E00024E0BF49884202D10121041404E0BD4933
:1010F00088420AD10121C4132046FFF702FB204693
:10110000BDE810400021FFF7FCBAB749884202D180
:10111000012144140AE0B549884202D101210C059D
:1011200004E0B34988420AD101214C052046FFF76B
:10113000F2FA2046BDE810400021FFF7ECBA10BDDE
:1011400030B502884C8802F441530A88CD88224386
:101150008C882C4322430C8922434C8922438C895E
:101160002243CC8922431A430280828B22F40062FC
:101170008283098A018230BDF0B502220023858B6B
:1011800001244FF24006354085830284868B8D68AA
:10119000022D3DD08A8802B10224964A13681B02B0
:1011A00003D5136823F400031360924A7C3213685A
:1011B0001268C3F388138F4FC2F302723F1F3D685A
:1011C0003F6805F03F057F0201D58B4F00E08B4F54
:1011D000B7FBF5F55D43B5FBF2F2CB88B3F5007FC5
:1011E0002BD06301B2FBF3F202EB82028B68520058
:1011F000B2FBF3F2521D92B20A23B2FBF3F202F0F9
:101200000103D21A4FF6FF74C2F34F0204EA03231C
:10121000941EFE2C01D302220023CC881A431443CF
:1012200004840A884B881A438B8889890B431A43A4
:10123000324342F400618183F0BD120AD4E70021F9
:10124000018041808180C180018141818181C18192
:101250000721018270470021018041808180C18087
:1012600002228260818170470029018802D041F00A
:10127000400101E021F04001018070470029818B8D
:1012800002D041F4806101E021F4806181837047E4
:10129000028822F40062028002880A4302807047BA
:1012A000B1F5804F018803D021F48041018070475F
:1012B00041F48041FAE7A1F57E420188FF3A02D06D
:1012C00041F4807101E021F48071018070470029B0
:1012D000818802D041F0040101E021F00401818005
:1012E00070470029818802D041F0100101E021F00F
:1012F00010018180704730B5828B00234FF240048B
:101300002240828302220284848B0A884FF48075F3
:10131000B2F5007F00D002B92B464A888D888989B2
:101320002A4319430A43224342F40061818330BDBA
:1013300080897047818170470029018802D041F47B
:10134000005101E021F4005101807047018841F40F
:10135000805101807047012901D0008B7047808A3D
:101360007047008A7047002A828801D00A4300E053
:101370008A4382807047090901238B40002A8288B2
:1013800099B201D00A4300E08A4382807047024646
:10139000002012890A4200D001207047C943018110
:1013A000704730B501F00F030125024605FA03F43A
:1013B0000020A3B2090905FA01F49188A4B21289A8
:1013C00021401A4202D0002900D0012030BD01F096
:1013D0000F0201219140C943018170470030014053
:1013E00000380040003C0040003401400050014003
:1013F000005401400838024000127A000024F40032
:101400002DE9F043016821F0010101600021016034
:1014100041608160C160016121214161B849B84AE0
:101420003D251039904202D18D60BDE8F083B44A69
:101430004FF474661832904201D18E60F5E7B04ADD
:101440004FF474173032904201D18F60EDE7AC4A0F
:101450004FF0746C4832904202D1C1F808C0E4E702
:10146000A74BA84A6033984201D1CA60DDE7A44C7B
:10147000A54B7834A04201D1CB60D6E7DFF880825B
:10148000A24C08F19008404501D1CC60CDE7DFF8CF
:1014900070824FF03D5908F1A808404502D1C1F8CB
:1014A0000C90C2E79A49DFF868820839404501D1BB
:1014B0000D60BAE7964D1835A84201D10E60B4E729
:1014C000934D3035A84201D10F60AEE7904D4835BD
:1014D000A84202D1C1F800C0A7E78D4D8C49603504
:1014E000091FA84201D10A609FE7894A78329042D9
:1014F00001D10B6099E7864A9032904201D10C608D
:1015000093E7834AA83290428FD1C1F800908CE7CC
:1015100030B503687F4ACC6813400A682243D1E99A
:1015200005452C432243CC6922430C6A22434C6A72
:1015300022438C6A22434C6B22438C6B22431A4316
:101540000260426922F00703D1E90B2422431A43C7
:1015500042610A6942604A6882608968C16030BD40
:101560000021016041608160C16001614161816170
:10157000C161016241628162C16201634163816351
:1015800070470029016802D041F0010101E021F01B
:101590000101016070470029016802D041F4004157
:1015A00001E021F40041016070470029016802D088
:1015B00041F0200101E021F020010160704741600D
:1015C0007047406880B27047002A026802D042F437
:1015D000002201E022F4002202600161704700292C
:1015E000016802D041F4802101E021F480210160F2
:1015F00070470AB101617047C16070470146002021
:101600000968090300D501207047014600200968D8
:10161000C90700D001207047406900F038007047CA
:1016200002463B4B00209A4202D2354A103A01E072
:10163000374A103A8B0001D5526800E01268364BE9
:101640001A400A4200D001207047314A904202D22B
:101650002B48103801E02E4810382F4A8B0001EA41
:10166000020101D5C1607047816070470B0607D544
:10167000436912B143F0800301E023F0800343612A
:10168000802908D0002A026801F01E0101D00A4317
:1016900000E08A430260704730B51D4A0024904242
:1016A00002D2174A103A01E0194A103A1B4B19426C
:1016B00005D01E2303EAD12503682B4002E04069D0
:1016C00000F08003880001D5506800E01068124ADD
:1016D0001040084201D003B10124204630BD0C4A1D
:1016E000904202D20648103801E0094810380A4AF0
:1016F0008B0001EA020101D5C1607047816070472B
:10170000106002403D000020400F002000003D20FE
:10171000106402403F801CF07D0F7D0F3C0F3C0F9A
:10172000FE4A0146904200D10020FD4A914200D17C
:101730000120FC4A914200D10220FB4A914200D193
:101740000420FA4A914200D10520F94A914200D181
:101750000620F84A914200D10720F74A914200D171
:101760000820704770471CB530B1032803D1082109
:10177000F148FFF7F7FF1CBD08210320CDE9000168
:10178000014601230022ED4800F0EFFC1CBD1CB512
:101790000822032140B101280ED0032803D10821DB
:1017A000E448FFF7DFFF1CBDCDE900120123002252
:1017B0004FF4C071E14805E0CDE900120123002299
:1017C000C021DF4800F0D1FC1CBD1CB5082203215C
:1017D00040B101280DD0032803D10821D448FFF7D8
:1017E000C1FF1CBDCDE9001201230022C021D54854
:1017F00006E0CDE90012012300224FF48441D248D3
:1018000000F0B3FC1CBD7CB530B1032803D1082126
:10181000C648FFF7A7FF7CBD08250324012300224B
:101820001903C848CDE9004500F09FFC01230022C0
:101830000421C648CDE9004500F097FC7CBD1CB5ED
:101840000822032140B101280DD0032803D108212B
:10185000B548FFF787FF1CBDCDE900120123002228
:101860000321BB4806E0CDE90012012300224FF41A
:101870004061B44800F079FC1CBD1CB5072203236D
:10188000990250B101280ED0022812D0032803D1AA
:101890000721A448FFF766FF1CBDCDE900320123F4
:1018A0000022AC480CE0CDE9003201230022A5481B
:1018B00006E0CDE90032012300224FF44071A34835
:1018C00000F053FC1CBD1CB50722032140B10128C8
:1018D0000DD0032803D107219148FFF743FF1CBD1A
:1018E000CDE90012012300220C21994805E0CDE941
:1018F0000012012300226021944800F036FC1CBD38
:101900001CB50722032140B101280ED0032803D1C2
:1019100007218248FFF726FF1CBDCDE900120123F5
:1019200000224FF4C0618A4805E0CDE9001201238E
:101930000022C021874800F018FC1CBD774A0146F0
:10194000904200D18448764A914201D182481030B9
:10195000744A914201D180482030734A914201D1AA
:101960007D483030714A914201D17B484030704A05
:10197000914201D1784850306E4A914201D1764867
:1019800060306D4A914201D17348703070472DE943
:10199000FF4F87B09846DDE9149B13460446DDF8F7
:1019A0005CA0FFF7CBFF05465C486C4F0193844277
:1019B00009D1386840F0100038600898FFF7A0FFA0
:1019C00025208DF80000654E5548361F844209D108
:1019D000306840F4003030600898FFF774FF26202C
:1019E0008DF800004F48844209D1306840F48020CF
:1019F00030600898FFF741FF27208DF800004A4823
:101A0000844209D1306840F4002030600898FFF724
:101A100016FF34208DF800004448844209D1306814
:101A200040F4801030600898FFF7EDFE35208DF807
:101A300000003F48844209D1386840F020003860F7
:101A40000898FFF7C2FE47208DF80000394884420D
:101A500009D1306840F0804030600898FFF797FE69
:101A600052208DF800003448844209D1306840F09B
:101A7000004030600898FFF776FE53208DF8000094
:101A80002046FEF7CBFF01268DF8036006208DF877
:101A900001002046FFF744FE8DF802006846FEF77D
:101AA00022FC1698ADF80A00ADF80E90ADF8108043
:101AB000ADF80CB0ADF808A00020287340F6FF7018
:101AC0000590411E059101D30846FAE701A9204679
:101AD000FEF7E9FFA08940F02000A0812E73A089C5
:101AE00040F40050A0810BB0BDE8F08F2DE9FF411C
:101AF00004460A4800250C2617468846844206D12B
:101B0000CDE90065029500230395FFF740FF0448E7
:101B100084422BD1CDE90065029521E000100140FF
:101B20000044004000480040004C0040005000408D
:101B30000014014000780040007C0040001002408A
:101B4000001402400008024000180240000C02404D
:101B5000000002400004024010000020443802400F
:101B600000233A4641460395FFF711FFE5488442BA
:101B700008D1CDE90065029500233A464146039518
:101B8000FFF705FFE048844208D1CDE900650295E2
:101B900000233A4641460395FFF7F9FEDB488442AD
:101BA00008D1CDE90065029500233A4641460395E8
:101BB000FFF7EDFED648844208D1CDE900650295D5
:101BC00000233A4641460395FFF7E1FED14884429F
:101BD00008D1CDE90065029500233A4641460395B8
:101BE000FFF7D5FECC48844208D1CDE900650295C7
:101BF00000233A4641460395FFF7C9FEBDE8FF8141
:101C00002DE9FF470446C54800250C261F4690468F
:101C10008946844205D1CDE9006502950395FFF719
:101C2000B6FEBF48844208D1CDE9006502953B4627
:101C3000424649460395FFF7AAFEB248844208D1BE
:101C4000CDE9006502953B46424649460395FFF7BC
:101C50009EFEAD48844208D1CDE9006502953B4621
:101C6000424649460395FFF792FEA848844208D1B0
:101C7000CDE9006502953B46424649460395FFF78C
:101C800086FEA348844208D1CDE9006502953B4613
:101C9000424649460395FFF77AFE9E48844208D1A2
:101CA000CDE9006502953B46424649460395FFF75C
:101CB0006EFE9948844208D1CDE9006502953B4605
:101CC000424649460395FFF762FEBDE8FF8710B51F
:101CD0000023FFF733FEC18819B902894489A24263
:101CE0000DD0428983889A4201D100224281036843
:101CF00092B29B56521C428109B1491EC180D8B292
:101D000010BD10B50C46FFF719FEC38842890DE0DF
:101D10008188914200D100220168895CA14201D1F1
:101D2000012010BD521C5B1E92B29BB2002BEFD162
:101D3000002010BDF0B516460F4684460024FFF77C
:101D4000FDFD0546C08840B1697B6046FFF7D9FFBD
:101D500078B9E888A98888420BD00020F0BD604699
:101D6000FFF7B5FF3855697B884205D0641CA4B2E3
:101D700000E0761EB442F2DB0021641CA0B23954AC
:101D8000F0BD00B5FFF7DAFDC18829B901894089A6
:101D9000814201D1012000BD002000BD00B5FFF748
:101DA000CDFDC1888088814201D1012000BD002085
:101DB00000BD00B5FFF7C2FD0021C1800181418156
:101DC00000BD00B50B46FFF7B9FD437300BD10B56C
:101DD0000C460346FFF7B2FD007B00280BD007E05E
:101DE00019880906FCD59880641C18880006FCD563
:101DF00020780028F4D110BD70B515460E46044673
:101E0000FFF79CFD007B00280DD0002309E020880F
:101E10000006FCD5F05CA08020880006FCD55B1C89
:101E20009BB2AB42F3D370BDC388828893420DD27C
:101E30000389934201D10022028103890268D154AF
:101E40000189491C0181C188491CC1807047334800
:101E500010B50188890603D58088C0B202F01DFC48
:101E600010BD2F480088800605D52D48001D00882C
:101E7000C1B22C48D8E7704722480088800606D5B2
:101E80002048001D0088C1B226481030CCE77047BA
:101E90001D480088800606D51B48001D0088C1B279
:101EA00020482030C0E7704718480188890604D5CB
:101EB0008088C1B21B483030B6E7704714480088AC
:101EC000800606D51248001D0088C1B21548403072
:101ED000AAE770470F480088800606D50D48001D08
:101EE0000088C1B20F4850309EE770470A4800880A
:101EF000800606D50848001D0088C1B20948603038
:101F000092E7704700480040004C004000500040FD
:101F10000014014000780040007C004000100140A7
:101F2000004400402000002070B55A484168491C18
:101F30004160816811B18168491E8160AFF3008002
:101F40000024554E18E006EB8405686890B1017BCB
:101F500081B1826872B1521E826069680AD1486993
:101F6000096988476868016881606868416809B9DB
:101F700000210173641CE4B23078A042E3D870BD44
:101F8000464801684FF47A70B1FBF0F0401EB0F1A2
:101F9000807F12D24FF0E0225061414BF02083F855
:101FA000140D00209061072010613E48B1FBF0F154
:101FB0003848C160012101707047FEE7354800785C
:101FC000002805D04FF0E020016941F002010161D5
:101FD00070474FF0E020016921F002010161704774
:101FE0002DE9F0472C4C0546DDF8209020781E4660
:101FF00017468846052802D30020BDE8F087182040
:1020000003F084FA0028F8D00560C0E90185077361
:10201000C0E90469217804EB810148602178491CFA
:102020002170EAE71C4B30B400211A7806E003EB7C
:1020300081046468844203D0491CC9B28A42F6D83C
:102040008A4218D003EB81004068EFF3108472B627
:1020500005E003EB8102491C9568C9B255601A7806
:10206000521E8A42F5DC1978491E197004B962B60D
:1020700030BC03F07ABA30BC70470021017370475E
:1020800001210173704701688160704741607047AA
:10209000016070479000002048090020780100206E
:1020A0000FE000E0C0C62D00A3490844C0F38F2014
:1020B00070472DE9F04F9A46DDE909B88946034695
:1020C000FFF7F2FFC5B200204FF0030E012181405F
:1020D00011EA090F28D0994E36F815400C4326F81E
:1020E0001540DF6844000EFA04F6B7430BFA04FC0F
:1020F00047EA0C07DF601F6802FA04FCB74347EAAF
:102100000C071F60012A01D0022A0DD15F6889B235
:102110008F430AFA00F189B20F435F60996808FAA9
:1021200004F4B14321439960401CC0B21028CDD3C0
:10213000BDE8F08F00B5FFF7B7FF0121814080486F
:1021400002681143016000BDFCB51646DDE907C514
:102150000C00074608D0FFF7EDFFCDE900C5324679
:1021600021463846FFF7A5FFFCBD2DE9FC4F9946F7
:10217000DDE90BB792460D00064622D0FFF7DAFFE5
:10218000002201214FF00F0C01FA02F028420DD07D
:10219000D00806EB8003186A5407E40E0CFA04F822
:1021A00020EA080007FA04F420431862521C102A9F
:1021B000EAD3CDE9009B5346022229463046FFF779
:1021C00078FFBDE8FC8FF0B50E460546FFF76CFFC3
:1021D00000225A49C4B24FF0010C03270CFA02F353
:1021E00033420CD028684FEA420E07FA0EFE40EA4E
:1021F0000E00286031F81400984321F81400521C96
:10220000D2B2102AEAD3F0BDF0B500220125032690
:1022100005FA02F30B4205D00468570006FA07F3EB
:102220009C430460521CD2B2102AF1D3F0BDF0B529
:1022300000220127032607FA02F33C460B4208D08E
:102240000568530006FA03FC25EA0C059C4025436B
:102250000560521CD2B2102AEDD3F0BDF0B50022B9
:102260000125032605FA02F30B4205D00468570046
:1022700006FA07F31C430460521CD2B2102AF1D3B1
:10228000F0BDF0B5002201260324022706FA02F36E
:102290000B4209D00568530004FA03FC25EA0C053B
:1022A00007FA03F31D430560521CD2B2102AEDD386
:1022B000F0BDF0B500230127032507FA03F40C4213
:1022C00009D0C6685C0005FA04FC26EA0C0602FA8E
:1022D00004F42643C6605B1CDBB2102BEDD3F0BDCB
:1022E00041F48032C261C161C261C169C069704795
:1022F000002102E0491C89B240080128FAD80846AA
:10230000704700B5FFF7D0FE012181400C480268FC
:102310008A43026000BD00B5FFF7C6FE074931F8E9
:10232000100000BD00B5FFF7BFFE044931F81000F2
:10233000C04380B200BD00000000FEBF6009002065
:10234000303802401CB503210020CDE900010346CE
:102350004C03012221461948FFF7F6FE17481A30B0
:1023600004801CBD1CB500210220CDE900010B46F4
:102370000A4601211248FFF7E7FE1CBD104800691C
:10238000C107104805D0017829B90121017008461C
:102390007047002101700020704709480069C1079B
:1023A000084803D0012101700020704701780029FE
:1023B000FAD000210170012070470000001802408F
:1023C00000000240A00000200288520601D4002034
:1023D000704702899207FCD002891206F9D48181E4
:1023E00001898907FCD001890906F9D48089C0B226
:1023F000704770B505464FF40051FE48FEF7DBFA12
:10240000FD4C04212046FEF7D6FA2946FB48FFF78B
:10241000DBFF2046BDE870400421FEF7CABA70B564
:1024200005464FF40051F348FEF7C3FAF24C04217D
:102430002046FEF7C0FA2946F048FFF7C5FF2046C0
:10244000BDE870400421FEF7B4BA2DE9F04107461B
:102450001C4615460E462A20FFF7CBFF380AFFF729
:10246000DEFFF8B2FFF7DBFF280AFFF7D8FFE8B27C
:10247000FFF7D5FF2B20FFF7BCFF300AFFF7CFFF98
:10248000F0B2FFF7CCFF200AFFF7C9FFE0B2BDE8CA
:10249000F041C4E72DE9F0411D4614460E460746BB
:1024A000DDF81880FFF7D1FF2C20FFF7A2FFE41B17
:1024B000A81B401C641CD04F444304213846FEF73F
:1024C0007AFA4FF40051CB48FEF773FACB4E012154
:1024D000304601F02EFC4FF48035AC4201D3681E2B
:1024E00000E0204682B24146304600F004FE30460D
:1024F00000F034FE0028FAD1AC420AD3641CA2B228
:102500004146304600F0F7FD304600F027FE002837
:10251000FAD104213846FEF74CFA3046BDE8F041C6
:10252000002101F006BC08B580B20090B44800213B
:1025300043880088401E82B20846FFF7ABFF08BD03
:1025400001B5009801E0401E00900028FBD108BDB5
:1025500070B5A84D4FF4805421462846FEF72BFA5B
:1025600044F620663046FFF7EBFF21462846FEF78B
:1025700020FA3046FFF7E4FF0120FFF73AFF4CF264
:102580005030FFF7DDFFCB20FFF733FF3920FFF797
:1025900046FF2C20FFF743FF0020FFF740FF3420C9
:1025A000FFF73DFF0220FFF73AFFCF20FFF721FFA3
:1025B0000020FFF734FFC120FFF731FF3020FFF785
:1025C0002EFFE820FFF715FF8520FFF728FF0020EA
:1025D000FFF725FF7820FFF722FFEA20FFF709FF2A
:1025E0000020FFF71CFF0020FFF719FFED20FFF789
:1025F00000FF6420FFF713FF0320FFF710FF1220F6
:10260000FFF70DFF8120FFF70AFFF720FFF7F1FE2C
:102610002020FFF704FFC020FFF7EBFE2320FFF789
:10262000FEFEC120FFF7E5FE1020FFF7F8FEC520F3
:10263000FFF7DFFE3E20FFF7F2FE2820FFF7EFFE58
:10264000C720FFF7D6FE8620FFF7E9FE3620FFF70A
:10265000D0FE4820FFF7E3FE3A20FFF7CAFE5520E0
:10266000FFF7DDFEB120FFF7C4FE0020FFF7D7FE25
:102670001820FFF7D4FEB620FFF7BBFE0820FFF7B7
:10268000CEFE8220FFF7CBFE2720FFF7C8FEF22008
:10269000FFF7AFFE0020FFF7C2FE2A20FFF7A9FEDA
:1026A0000020FFF7BCFE0020FFF7B9FE0020FFF777
:1026B000B6FEEF20FFF7B3FE2B20FFF79AFE0020B7
:1026C000FFF7ADFE0020FFF7AAFE0120FFF7A7FEEF
:1026D0003F20FFF7A4FE2620FFF78BFE0120FFF727
:1026E0009EFEE020FFF785FE0F20FFF798FE3120C9
:1026F000FFF795FE2B20FFF792FE0C20FFF78FFED1
:102700000E20FFF78CFE0820FFF789FE4E20FFF712
:1027100086FEF120FFF783FE3720FFF780FE0720BB
:10272000FFF77DFE1020FFF77AFE0320FFF777FE0C
:102730000E20FFF774FE0920FFF771FE0020FFF75F
:102740006EFEE120FFF755FE0020FFF768FE0E2029
:10275000FFF765FE1420FFF762FE0320FFF75FFE20
:102760001120FFF75CFE0720FFF759FE3120FFF72D
:1027700056FEC120FFF753FE4820FFF750FE082009
:10278000FFF74DFE0F20FFF74AFE0C20FFF747FE34
:102790003120FFF744FE3620FFF741FE0F20FFF700
:1027A0003EFE1120FFF725FE1648FFF7C9FE29203F
:1027B000FFF71FFEBDE870402C201AE62DE9FC4112
:1027C000012500240B4E23462A4669033046CDE9F5
:1027D0000045FFF7B9FC084F0023012204213846C9
:1027E000CDE90045FFF7B0FC00230122110330467C
:1027F0000AE00000000C02400008024000500140C6
:10280000A600002040420F00CDE90054FFF79CFCD9
:1028100004213846FEF7CDF8FE4E0021304601F087
:1028200076F9304600F08FFBFFF792FEFA48F02170
:1028300044800480001D01804FF4A0714180057127
:10284000BDE8FC414FF6FF706DE62920D1E5282058
:10285000CFE510B514460B460246FFF7F6FD2C20D7
:10286000FFF7C7FDC4F30720FFF7D9FDE0B2BDE8CD
:102870001040D4E52DE9F04104463620FFF7B9FDBC
:10288000E54DF0272D1D4FF4A07634B1012C06D074
:10289000022C0BD0032C0BD00DE0582000E0882038
:1028A000FFF7BDFD2F806E80012007E0282000E0AB
:1028B000E820FFF7B4FD2E806F8000202871BDE86E
:1028C000F0812DE9F84F1D469146DDE90AA3D24A71
:1028D000108051802C782044141D2488A04204D9F3
:1028E0006878084450800020108098B200906B787F
:1028F00090465188B8F800005A1893B22A780244DA
:1029000092B2FFF7C7FD00261CE0A9F1200111FBE0
:1029100000606A68002432F810700FE007FA04F0D3
:1029200000040AD5B8F80210B8F800003144204479
:1029300089B280B25246FFF78CFF641C2878A0420F
:10294000ECD8761C6878B042DFD82978B8F8002037
:102950001144A8F80010BDE8F88F2DE9FC47AE4DF2
:10296000DDE90A9828801F461446064669800BE078
:102970000A2A0ED00D2A15D0CDE900983B46698869
:102980002888641CFFF79DFF2278002AF0D1BDE85B
:10299000FC8768887978401C0844688060780D2836
:1029A00002D02E80641CEFE700202880641CF9E729
:1029B00030B54D7800241D8002E00B7823449CB292
:1029C00010F8013B002BF8D1148030BD2DE9FC5FDD
:1029D0009046914A0C46121D054611881F46481E16
:1029E000A94200D885B2414501D81FFA80F8518824
:1029F000481EA14200D884B2B94200D887B24545EA
:102A000002D9284645468046BC4202D920463C466B
:102A10000746A8EB050000B25FEA000AA7EB040036
:102A20000FFA80F908D0B9F1000F05D04FF0FF3050
:102A300045450CD201210BE00C983B4680B200903A
:102A4000424621462846FFF725FDBDE8FC9F01468A
:102A50000191BC4200D2012000905046CA4501DCE1
:102A6000C9F1000000EBD070401006B2CAF1000BB3
:102A7000214628460C9AFFF7ECFE454501D1BC42A1
:102A8000E3D030465E4505DDA0EB09010EB20199A9
:102A900029448DB24845EBDA06EB0A0006B20098ED
:102AA000204484B2E4E72DE9F8431D46089C16460D
:102AB0000F4680460B460094FFF788FF42462B46A0
:102AC000394610460094FFF781FF32462B463946BF
:102AD00010460094FFF77AFF2B46324619464046CF
:102AE0000094FFF773FFBDE8F88338B59042049D6A
:102AF00002D9044610462246994202D90C4619468C
:102B00002346ACB20094FFF7C5FCBDE83840042171
:102B10004248FDF74EBF2DE9FF4F0746C2F10100C5
:102B200014460FFA80F8C2EBC43040000FFA80F967
:102B300083B00E46081981B24FF0010A0025B8B2E1
:102B4000069AFFF786FE301B81B2B8B2069AFFF7ED
:102B500080FE3819B1B280B2069AFFF77AFEB1B2A0
:102B6000381B56E0B8F1000F09DB09F102000FFA3B
:102B700080F9641E08EB090024B20FFA80F80AF10C
:102B800002000FFA80FA6D1C08EB0A002DB20FFA52
:102B900080F87819019006EB040B1FFA8BF180B2D4
:102BA000069AFFF756FE781B00901FFA8BF180B251
:102BB000069AFFF74EFE0198A6EB040B1FFA8BF165
:102BC00080B2069AFFF745FE00981FFA8BF180B29B
:102BD000069AFFF73EFE3819019006EB050B1FFA27
:102BE0008BF180B2069AFFF734FE381B00901FFA73
:102BF0008BF180B2069AFFF72CFE0198A6EB050B2D
:102C00001FFA8BF180B2069AFFF723FE1FFA8BF1B1
:102C1000009805E000500140A2000020000802409A
:102C200080B2069AFFF715FEA5429BDB07B0BDE810
:102C3000F08F2DE9FE4F0746C2F1010014460FFA4E
:102C400080F8C2EBC43040000FFA80FA0E46081933
:102C500081B299464FF0010B0025B8B21A46FFF732
:102C6000F8FD301B81B2B8B24A46FFF7F2FD3819C1
:102C70000290B1B280B24A46FFF7EBFD381B0190DB
:102C8000B1B280B24A46FFF7E4FD0298B3B2CDF884
:102C9000009082B2B1B240E0B8F1000F09DB0AF156
:102CA00002000FFA80FA641E08EB0A0024B20FFA41
:102CB00080F80BF102000FFA80FB6D1C08EB0B0093
:102CC0002DB20FFA80F8781982B20290781BCDE904
:102CD000009031198BB289B280B2FFF777FE01986C
:102CE000311B82B202988BB2CDF8009089B280B2CB
:102CF000FFF76CFE381B82B202903819CDE90090C4
:102D000071198BB289B280B2FFF760FE711B029815
:102D10008BB2CDF8009082B289B2019880B2FFF7F1
:102D200055FEA542B8DBBDE8FE8F000010B50021BE
:102D3000744A01E0491CC9B202EB41139B891B0490
:102D400001D50A29F6D30A291CD002EB41120388C7
:102D500013804388538083889380C388D3800389FA
:102D6000138143895381838948F20104234393816A
:102D700003691361038B138343695361C069D06195
:102D800048B210BD4FF0FF3010BD7FB55D4901EB7B
:102D90004014A089010402D4002004B070BD400793
:102DA0001DD5002617E0002510E0A088E1696843E2
:102DB000400000EB46000A5A6088284481B220880F
:102DC000304480B2FFF745FD6D1CADB2E088A842EB
:102DD000EBD8761CB6B2A088B042E4D80BE02089CC
:102DE00000906188E088A288084483B22088024469
:102DF00092B2FFF77AFE207B00071FD4D4E90401CA
:102E000003AB02AAFFF7D4FD2088A188E28800EB7B
:102E10005100BDF808102389A0EB5100618880B2F1
:102E200001EB5201BDF80C20A1EB5201228BCDE940
:102E30000023D4E9042389B2FFF78FFD207B8007AC
:102E40000BD4608900906188E088A288084483B22E
:102E50002088024492B2FFF726FE01209DE770B55C
:102E6000284D002405EB44108089000402D520463B
:102E7000FFF78BFF641CE4B20A2CF3D370BD70B56E
:102E8000204D002105EB4112137BDB0711D0038895
:102E90001488A3420DD9968834449C4209D94388AA
:102EA0005488A34205D9D28822449A4201D948B213
:102EB00070BD491CC9B20A29E4D34FF0FF3070BD80
:102EC000104901EB4010818941F001018181704777
:102ED0000C4901EB4010818921F00101818170478B
:102EE000084901EB4010818921F40041818170473C
:102EF00000B500221046FFF7F3FF521CD2B20A2A97
:102F0000F8D300BD78090020AF4A0146904200D1B5
:102F1000AE48AF4A914201D1AC481830AD4A914217
:102F200001D1AA483030AC4A914201D1A74848307B
:102F3000AA4A914201D1A5486030A94A914201D1E3
:102F4000A2487830704710B5FFF7DEFFA54AA649C2
:102F5000436893420B6802D343F4800301E043F4D7
:102F600000130B60C0689042086802D340F48000F0
:102F700001E040F4001008609C4900204861C861ED
:102F8000086248628862C86208634863886310BD4B
:102F90002DE9F0411F4614460D468046069EFFF778
:102FA000B3FF80E8F0004046BDE8F041CBE710B544
:102FB000FFF7AAFF04464068FEF722FAE068BDE882
:102FC0001040FEF71DBA2DE9F0479A4617460D4608
:102FD0000646FFF799FF0446C068406818BB606862
:102FE000406800BB55EA07001DD0DFF800824FF0B3
:102FF0000009A4F81490C8F82090C8F810A006F1B1
:103000000C01C8F81C90C8F804102168C8F800101A
:10301000402140464FF4806AC8F80C1035B18560F5
:10302000C8F818A007E00020BDE8F08704F11001FF
:103030008160C8F818903D21606800F0D9F86B49AC
:103040006068FEF765FAA168C8F800104046494676
:10305000C8F80C901FB18760C8F818A004E004F10C
:1030600010028260C8F818103D21E06800F0C0F836
:103070005E49E068FEF74CFAE068016841F0010142
:1030800001606068016841F001010160B08840F0B2
:103090000300B0800120C7E72DE9F04116460F4636
:1030A0000546FFF731FF04464068406810B1002034
:1030B000BDE8F0814D48276105F10C0106614160D2
:1030C000002181612268026040220162C260C16108
:1030D0003D21606800F08CF844496068FEF718FAFA
:1030E0006068016841F001010160A88840F00200B9
:1030F000A8800120DCE72DE9F04116460F46054681
:10310000FFF702FF04464068406808B10020CFE79F
:103110003648A78205F10C010661416004F11401F3
:10312000816000218161216801604021C160C90185
:1031300001628910C1613D21606800F059F82B4996
:103140006068FEF7E5F96068016841F0010101601F
:10315000A88840F00200A8800120A9E710B5044625
:10316000FFF7D2FEC168496841B94068406828B994
:103170002089800702D02089000601D5012010BDDA
:10318000002010BD10B5FFF7BFFE406810BD10B5A0
:10319000FFF7BAFEC06810BD10B5FFF7B5FE0446D4
:1031A000406800F05BF8E068BDE8104000F056B8F9
:1031B00010B5FFF7A9FE0446406800F07EF8E0680D
:1031C000BDE8104000F079B800300140C400002094
:1031D00000380040003C00400034014000500140F5
:1031E000005401401064024030380240B80A002008
:1031F000784A10B51823904202D2774A774C03E000
:10320000744A744C083A64422044B0FBF3F004283A
:1032100001D3001F121D724B01F03D01185C81406B
:10322000116010BD3D21E3E76A491822884203D2AC
:1032300069496A4B083903E06649664B10395B42BD
:103240001844B0FBF2F0042801D3001F091D0968DF
:10325000634A105CC14001F03D00704738B5044638
:103260003D21FFF7C5FF5E4A5A4B1820121D012170
:103270009C4207D2594B8DF801102344B3FBF0F068
:10328000125C08E0534B8DF801105B422344B3FB02
:10329000F0F00244127A8DF800208DF803108DF8BA
:1032A00002006846FDF71FF8206840F01E0020600D
:1032B000606940F08000606138BD10B504463D2172
:1032C000FFF796FF4648434A1821001D944201D259
:1032D000424A01E03F4A52422244B2FBF1F14056D9
:1032E000012100F01F0291404009800000F1E02020
:1032F000C0F88011206820F01E002060606900F096
:103300008000606110BD704770477047704770471C
:1033100070B505463D21FFF787FF84B23D21284661
:10332000FFF766FFA00605D52868C00602D5284627
:10333000FFF7E9FFE00605D52868000702D5284613
:10334000FFF7E2FF200705D52868400702D5284689
:10335000FFF7DBFF600705D52868800702D5284600
:10336000FFF7D4FFE00705D06869000602D52846BC
:10337000FFF7CDFF70BD18480830C9E71648203068
:10338000C6E715483830C3E713485030C0E7124845
:103390006830BDE710488030BAE70F489830B7E78B
:1033A0000D48B030B4E70B48B2E70A481830AFE731
:1033B00008483030ACE707484830A9E70548603096
:1033C000A6E704487830A3E702489030A0E7014818
:1033D000A8309DE71064024008600240F09FFDBFE6
:1033E000CA81000870477CB50425012440B101283A
:1033F00013D0032803D10421FD48FFF7F3FF7CBD60
:1034000001231A461902FB48CDE90045FEF7ADFE3F
:1034100001231A465902F84804E00123F7481A46E6
:103420004FF4C071CDE90045FEF79FFE7CBD1CB591
:103430000421012248B101280FD0022814D003280A
:1034400002D1EF48FFF7CEFF1CBDCDE900210123DB
:103450001A464FF44061EB480CE0CDE9002101230E
:103460001A460321E84805E0CDE9002101231A4668
:103470003021E248FEF779FE1CBD1CB50421E14C69
:10348000012248B101280DD0022812D0032802D110
:10349000DE48FFF7A7FF1CBDCDE9002101231A4636
:1034A000C0210CE0CDE9002101231A464FF4407100
:1034B00005E0CDE9002101231A464FF410712046A2
:1034C000FEF753FE1CBD2DE9FF4715460446CF4AC3
:1034D0000026CF48CF4F4FF480484BF6FF799442F7
:1034E0000CD1026842F4001202600846FFF7C5FFE3
:1034F0003868A84200D93D6038681EE0C04A94424E
:103500000CD1026842F4800202600846FFF78FFF88
:103510007868A84200D97D6078680EE0B44A944289
:1035200016D1026842F4000202600846FFF75BFF12
:10353000B868A84200D9BD60B868ADF80460ADF8BD
:1035400008600090ADF80C80ADF80A60ADF8069008
:10355000208820F00100208069462046FDF726FCE7
:10356000208840F001002080BDE8FF8770B5044648
:10357000008820F480602080208840F40070208043
:10358000A44D44F620602D1FA34E286003E02A6856
:10359000521E2A6008D031462046FDF751FD002812
:1035A000F5D0208AC0B270BD012070BD70B5044650
:1035B000008840F480702080964D44F620662D1FD0
:1035C0002E6003E02868401E28602AD0A08AC00729
:1035D000F8D01BB1208840F4806020805AB921F0D7
:1035E000010020822E6003E02868401E286018D069
:1035F000A08A8007F8D5012A10D141F0010020826D
:103600002E60854E3E3E03E02868401E286008D0AC
:1036100031462046FDF714FD0028F5D0208B002010
:1036200070BD012070BD7B4A44F62061121F1160FD
:1036300003E01168491E11600BD0818A0906F8D594
:10364000818A4907F5D5018841F400710180002085
:103650007047012070476F4B44F620621B1F1A60B1
:10366000828A120603D41A680AB1521EF7E7018251
:10367000704770B5164600230C4605461A46FFF7FC
:1036800095FF31462846FFF7E6FF2846FFF7CBFFB8
:103690000023012221462846FFF788FF2846BDE87F
:1036A000704063E770B50546008840F4806028806C
:1036B000584C44F62060241F574E206003E02268D7
:1036C000521E226008D031462846FDF7B9FC00287A
:1036D000F5D0288AC0B270BD012070BD2DE9F0413F
:1036E0001D4616460C46804601230022069FFFF722
:1036F0005DFF31464046FFF7AEFF01231A462146E3
:103700004046FFF753FF00247E1E0AE0B4424046C5
:1037100002D1FFF72BFF01E0FFF7C4FF2855641C1F
:10372000E4B2BC42F2D3BDE8F08110B501230446F7
:103730001A46FFF73BFF2046BDE8104016E72DE98B
:10374000F0411E461546012380461A46FFF72EFF1C
:103750000024771E0AE0BC42404602D1FFF706FF74
:1037600001E0FFF79FFF2855641CE4B2B442F2D396
:10377000D9E770B51D461646002304461A46FFF7E2
:1037800015FF31462046FFF766FF29462046FFF722
:1037900062FF2046BDE8704045E72DE9F0411D4637
:1037A0001446002307461A46069EFFF7FFFE2146F1
:1037B0003846FFF750FF002405E0295D3846FFF743
:1037C0004AFF641CE4B2B442F7D33846BDE8F04186
:1037D00029E770B51546002304461A46FFF7E6FEB2
:1037E00029462046FFF737FF2046BDE870401AE71C
:1037F000005C00400000024000080240001C024043
:1038000000580040000402400014024000540040F0
:103810004038024058010020400003002DE9F041EB
:103820001D461646002307461A46FFF7BFFE002432
:1038300005E0315D3846FFF70EFF641CE4B2AC4290
:10384000F7D33846BDE8F041EDE670B500240546F3
:1038500001232246FFF7AAFE00B901242846FFF7FC
:10386000E2FE204670BD000070471CB530B1032851
:1038700003D10521FE48FFF7F7FF1CBD05210320FA
:10388000CDE9000100231A464FF4E041F948FEF764
:103890006CFC1CBD7CB50525F74E032440B1012806
:1038A0000CD0032803D10521F448FFF7DDFF7CBDD0
:1038B00000231A464FF4607130460CE000231A468C
:1038C0004FF400613046CDE90045FEF74EFC002381
:1038D000EB481A46C021CDE90045FEF746FC7CBD09
:1038E0001CB50522E74C032140B101280CD0032868
:1038F00003D10521E448FFF7B7FF1CBDCDE9001255
:1039000000231A46642105E0CDE9001200231A467F
:103910004FF4E0412046FEF728FC1CBD1CB50622F2
:10392000032140B101280DD0032803D10621D74837
:10393000FFF79AFF1CBDCDE9001200231A4638217B
:10394000D34806E0CDE9001200231A464FF4E051B7
:10395000D048FEF70AFC1CBD7CB50525CC4E0324DF
:1039600050B1012816D002281AD0032803D105210E
:10397000C948FFF779FF7CBD00231A464FF48061E8
:103980003046CDE90045FEF7F0FB00231A460C2136
:10399000C04809E000231A464FF46041304603E076
:1039A0000023BE481A460D21CDE90045FEF7DDFB98
:1039B0007CBD1CB50522032140B101280DD0032890
:1039C00003D10521B648FFF74FFF1CBDCDE900121A
:1039D00000231A46E021B34805E0CDE90012002398
:1039E0001A463821AA48FEF7C0FB1CBD2DE9FF4F3F
:1039F00085B00446DDE912BA994616466846FDF7D9
:103A00001EFCA748A84F0025844208D1386840F41E
:103A1000805038600698FFF7CCFFADF804509E4800
:103A2000DFF884828442A8F104080AD1D8F8001093
:103A300041F48041C8F800100698FFF78DFFADF8FB
:103A40000450924884420AD1D8F8001041F4004151
:103A5000C8F800100698FFF761FFADF804508A48D7
:103A6000844208D1386840F4005038600698FFF767
:103A700037FFADF804508148844208D1386840F4DB
:103A8000801038600698FFF705FFADF804507848BD
:103A9000844208D1386840F4001038600698FFF777
:103AA000E4FEADF80450ADF80C90ADF800504FF4C2
:103AB0000070ADF80EA0ADF802B0ADF80A0046B146
:103AC0000121012E08D00220022E08D0032E0BD097
:103AD0000EE0ADF8065004E0ADF8065006E0ADF893
:103AE0000600ADF8085003E0ADF80600ADF8081088
:103AF000208820F04000208069462046FDF720FB0A
:103B0000208840F04000208009B0BDE8F08F2DE90A
:103B1000FC410446624800250F464FF482768442F9
:103B200005D1CDE9006520230022FFF75FFF5A4849
:103B3000844206D1CDE90065202300223946FFF7F3
:103B400055FF5248844206D1CDE90065202300226A
:103B50003946FFF74BFF4C48844206D1CDE900655A
:103B6000202300223946FFF741FF4448844206D112
:103B7000CDE90065202300223946FFF737FF3C4896
:103B8000844206D1CDE90065202300223946FFF7A3
:103B90002DFFBDE8FC812DE9FC410446404800258D
:103BA000174688464FF48276844204D1CDE90065F9
:103BB0002023FFF71BFF3848844206D1CDE900657A
:103BC00020233A464146FFF711FF3048844206D190
:103BD000CDE9006520233A464146FFF707FF2A4812
:103BE000844206D1CDE9006520233A464146FFF7DD
:103BF000FDFE2248844206D1CDE9006520233A46E5
:103C00004146FFF7F3FE1A488442C2D1CDE9006570
:103C100020233A464146FFF7E9FEBAE72DE9FC4783
:103C20000446DDE90A651E481F46904689468442DF
:103C300005D1CDE9006513463A46FFF7D7FE164891
:103C4000844206D1CDE9006543463A464946FFF72E
:103C5000CDFE0E48844206D1CDE9006543463A4682
:103C60004946FFF7C3FE0848844225D143461DE07C
:103C7000005401400018024000140240005001406E
:103C8000001C02400010024000340140003C004093
:103C900000040240000802400038004000200240BA
:103CA000003001400000024044380240CDE9006588
:103CB0003A464946FFF79AFE7748844206D1CDE955
:103CC000006543463A464946FFF790FE73488442F2
:103CD00006D1CDE9006543463A464946FFF786FEE0
:103CE000BDE8FC877FB50D00044620D06846FCF790
:103CF00023FC6B48844208D06A48844205D0664859
:103D0000844202D06548844201D1039900E00299BF
:103D100000200124421C04FA02F3B1FBF3F3AB428E
:103D200002D8C00004B070BDD0B20828F2D3382049
:103D3000F8E702880388C2F3C02223F0400303801F
:103D40000129018808D021F400610180018841F037
:103D5000400101801046704741F40061F5E730B53D
:103D60000488640614D50489A407FCD004892406B9
:103D7000F9D400240AE00D5D85810589AD07FCD0EA
:103D800005892D06F9D485891555641C9C42F2D30A
:103D900030BD10B503885B0613D503899B07FCD0A3
:103DA00003891B06F9D4002309E0CC5C84810489D3
:103DB000A407FCD004892406F9D484895B1C9342AF
:103DC000F3D310BD30B50488640613D50489A40765
:103DD000FCD004892406F9D4002409E082810589F5
:103DE000AD07FCD005892D06F9D485890D55641CD5
:103DF0009C42F3D330BD30B50488640616D50489DF
:103E0000A407FCD004892406F9D400240CE031F87E
:103E1000145085810589AD07FCD005892D06F9D49C
:103E2000858922F81450641C9C42F0D330BD10B533
:103E300003885B0614D503899B07FCD003891B0606
:103E4000F9D400230AE031F8134084810489A407DF
:103E5000FCD004892406F9D484895B1C9342F2D3F4
:103E600010BD30B50488640614D50489A407FCD0BD
:103E700004892406F9D400240AE082810589AD076B
:103E8000FCD005892D06F9D4858921F81450641CCD
:103E90009C42F2D330BD000000500140005401406C
:103EA000003001400034014002468221C348FFF740
:103EB000E0BB1CB5FEF764F8C04CC14A00212046A7
:103EC000FFF701FB0223032282212046FFF751FC6A
:103ED000052000F05CF90023032282212046FFF731
:103EE00048FC022000F053F90221009101AB0022AE
:103EF00082212046FFF7F2FBBDF8040041BAA1F58C
:103F00000062113A01D003201CBD0223032282214A
:103F10002046FFF72EFC052000F039F9002303228C
:103F200082212046FFF725FC022000F030F9042012
:103F3000FFF7BAFF20F00103042282212046FFF799
:103F400018FC0420FFF7B0FF20F0020304228221B6
:103F50002046FFF70EFC4923202282212046FFF74E
:103F600008FC022000F013F90123212282212046BF
:103F7000FFF7FFFB1720FFF797FF40F01E03172204
:103F800082212046FFF7F5FB9A2341228221204619
:103F9000FFF7EFFB01234A2282212046FFF7E9FBCE
:103FA00001234B2282212046FFF7E3FB00234B2213
:103FB00082212046FFF7DDFB012356228221204685
:103FC000FFF7D7FB0123582282212046FFF7D1FBC0
:103FD0000323402282212046FFF7CBFBFF230B2245
:103FE00082212046FFF7C5FB022000F0D0F8022016
:103FF0001CBD70B504464F20FFF756FF60F30F2538
:104000005020FFF751FF60F30705A5F5B47528B2FE
:104010000B2190FBF1F001B2002901DC002104E04A
:10402000B1F5A07F01DB40F23F11A14201DD081B89
:1040300000E0601A00B2042801DD88B270BD20469D
:1040400070BD70B504464D20FFF72EFF60F30F25BD
:104050004E20FFF729FF60F3070529B240F6B8307C
:10406000814202DCA1F63C7101E0A1F6D861484230
:1040700000B20F2190FBF1F001B2EF2901DDEF2139
:1040800002E0002900DA0021A14201DD081B00E066
:10409000601A00B2042801DD88B270BD204670BDF0
:1040A00070B50446007960714020FFF7FDFE434E75
:1040B00000064FF001050DD4257101234B2282210A
:1040C0003046FFF756FB00234B2282213046FFF794
:1040D00050FB5AE0A07930B1012811D0022818D045
:1040E000032821D02AE02088FFF7ABFFC0F1EF00C2
:1040F00020806088FFF77DFFA0F23F10404206E07D
:104100002088FFF79EFF20806088FFF772FF6080A5
:1041100014E06088FFF795FF60802088FFF769FF53
:10412000A0F23F10404208E02088FFF78AFFC0F16C
:10413000EF0060802088FFF75CFF208001234B2286
:1041400082213046FFF715FB00234B2282213046A7
:10415000FFF70FFBA07900214FF49F7260B1012897
:104160000AD02088401E90420ED2608860B1EF28AD
:104170000AD22171002070BD2088401EEE2803D293
:10418000608808B19042F4D92571012070BD0D49B5
:1041900008B50A680092EFF3058242B14FF0E021C2
:1041A000002809D00A69D203FAD5401EF8E70A6848
:1041B000009BD21A8242FAD308BD0000005C004086
:1041C000A0860100940000207449002048807047B8
:1041D00010B500F03CFA71490028488806D040F438
:1041E0000070488000F0ADFB012010BD00F0A9FB7D
:1041F000002010BD70B5694CC1F30746638843EADF
:10420000126004F1100360801D78B54209D15B880B
:1042100092B2934205D1221D49B292F900208A42FE
:1042200002D040F48070608080B200F08AFB608829
:10423000002800D0012070BD70B504460D4616461A
:1042400041F3072000F069FBE0B200F06AFB200CAC
:1042500000F06BFBC5F3074000F06BFBB0B200F061
:104260006CFBC6F30740352804D00020BDE8704041
:1042700000F06BBB0120F9E770B5484C012808D06D
:10428000022813D0032823D12078D8B100F090F968
:104290001AE000F062FB414D1035287000F061FB20
:1042A00068802069BDE8704000F098B900F05DFBBF
:1042B0003A49091D0870002048706068BDE87040E8
:1042C00000F0AAB900F05EF9207880F001002070BB
:1042D00070BD32488168491C8160C168491CC16059
:1042E00070471FB500F0C9F8352000F033F9FDF72D
:1042F00047FEFDF763FE0026AFF2290301221146B7
:1043000064200096FDF76CFEFEF72CF8AFF29700E4
:1043100000F064FA214D2F1D002401A800F09CF943
:10432000C8B1A86805280AD31C489DF80A101030A7
:104330000170BDF80C1041809DF80800387001AB89
:10434000AE6093E80700FFF777FF01AB93E8070043
:10435000FFF750FF0446FFF73BFF204301D0EE601C
:1043600004E0E868C82801D3EE606E80A8680528DC
:1043700003D30520A860002000E0012000F0C7FA68
:10438000FDF7FCFF38B100F0F0FA387001207870CA
:10439000686800F041F900F0A1FABDE7640100206F
:1043A0007047FEE7FEE7FEE7FEE77047704770479D
:1043B000704710B5FDF7B8FD10BD00001CB5002119
:1043C0005B4A00910191106840F4803010604FF416
:1043D000A043106800F4003001900098401C009049
:1043E000019810B900989842F3D11068800342D523
:1043F000012001904E484030016841F08051016039
:104400004C49086840F44040086049480830036857
:104410000360036843F400430360036843F4A0535C
:104420000360041F444B2360136843F080731360E0
:1044300013689B01FCD50A6842F480320A604A681E
:10444000D203FCD50A6842F400320A604A6892033B
:10445000FCD53A4A40F205711160016821F0030170
:104460000160016841F0020101600168C1F381014E
:104470000229FAD11CBD01911CBD314810B501685B
:1044800041F4700101602A48016841F001010160B6
:10449000274A00210832116002682A4B1A40026044
:1044A000031D294A1A60026822F480220260204813
:1044B0000C300160FFF782FF21494FF00060803926
:1044C000086010BD70B51A4D083528681F4B20498B
:1044D00010F00C0004D05E10042803D0082803D08C
:1044E0000B601BE00E6019E0114A121D1068C0F34A
:1044F0008054106800F03F0014B1B6FBF0F001E00A
:10450000B3FBF0F013681268C3F388135843C2F387
:104510000142521C5200B0FBF2F0086028680C4ABD
:10452000C0F30310121D105C0A68C2400A6070BD1F
:104530000038024000700040085A4007003C02402A
:1045400088ED00E0FFFFF6FE103000240024F400A8
:104550007801002010B504464FF4165200219B4804
:10456000FDF7C4FA9A48047010BD10B50346002246
:10457000104604E09C5C521C2044C0B2D2B28A4275
:10458000F8D310BD1CB59348D0E90010CDE9001058
:104590008F48042100788DF803006846FFF7E5FF97
:1045A0008DF80400052269468848FDF725FC1CBDEE
:1045B0001CB58848D0E90210CDE9001084480421D8
:1045C00000788DF803006846FFF7CFFF8DF80400F0
:1045D000052269467D48FDF70FFC1CBD0EB57D49DF
:1045E00018310EC98DE80E00794909788DF804005C
:1045F0008DF80310000C010A8DF805108DF80600E7
:1046000008216846FFF7B1FF8DF8070008226946C8
:104610006E48FDF7F1FB0EBD1CB56E49D1E90421D2
:10462000CDE900216A4909788DF80400000A8DF867
:1046300003108DF8050005216846FFF796FF8DF8F9
:104640000600072269466148FDF7D6FB1CBD60499C
:10465000002288788A70704730B55D4C00216278FE
:10466000CAB15D4B521E1D6805605D6845609D685E
:1046700085600BE001EB410003EB8000491CC5683D
:1046800005600569456045698560C9B29142F1DB05
:104690006270012030BD002030BDF0B54C490025CE
:1046A0004D4ACE78030244B20E2E67D2DFE806F000
:1046B000070B0F131A222C343C444C565E675328C8
:1046C0005CD1012059E054287ED1022055E04128D8
:1046D0007AD1032051E04B7803EB430302F8230027
:1046E00004204AE0487800EB400002EB8000438061
:1046F000052042E04B7803EB430302EB830253882F
:1047000003435380062038E0487800EB400002EB7A
:1047100080000471072030E0487800EB400002EB95
:1047200080004471082028E04B7803EB430302EB40
:1047300083029071092020E0487800EB400002EBF2
:10474000800003810A2018E04B7803EB430302EB5F
:1047500083021389034313810B200EE04B7803EB94
:10476000430302EB830290720C2006E04B7803EBCC
:10477000430302EB8302D0720D20C870F0BD4B786A
:1047800003EB430412F8246002EB8402E8365488F9
:1047900006EB242634441679344456793444967909
:1047A0002644148906EB14263444967AD27A34448B
:1047B0002244D2B2824201D1182B03D38878401C04
:1047C000887001E05B1C4B70CD70F0BD00100140A3
:1047D0008C010020E0810008F40A002010B5044696
:1047E00000F0CAF800F0D5F86248C46010BD614816
:1047F00010B5103000F078FA00F0F7F85D4908289D
:1048000001F1100215D2DFE800F014040A10151DA2
:104810001F2901200870BDE8104000F076B992F918
:104820000300002805DA404209E092F9030000285D
:10483000F9DA10BD92F903006428FADA401CD0704E
:10484000022007E00020FAE792F903000028F0DDDB
:10485000401EF4E7C968BDE8104008470320F9E7A7
:1048600070B5444CA41D20462178408801B918B188
:10487000404A921C117050803E48801C00F015F98F
:1048800000F0B3F800253B49072812D2DFE800F01A
:1048900011040C12151B2000257065800220087081
:1048A000BDE8704000F0FBBBC96801208847257057
:1048B000658070BD6088401C03E060880028F8D0E7
:1048C000401E608070BD20780528FBD2401C03E0AC
:1048D00020780028F6D0401E207070BD10B5254C01
:1048E000207830B101280ED002280FD1BDE8104049
:1048F0007DE700F07AF8002808D002202070BDE89B
:10490000104000F0CCBBBDE81040A9E710BD19492C
:10491000103100B10120087070471649103108713C
:104920007047144910318870704712491031C8809F
:1049300070471049891C087070470E49891C4880CF
:1049400070470C491031088170470A49103108B18D
:10495000002000E00120487070470648801D007864
:1049600070470448801D408870470248103090F915
:10497000030070479001002010B5FDF71FFFFFF7FF
:1049800098FABDE81040FDF7DDBC4FF6FF70FDF76B
:10499000CABD7CB54FF6FF70FDF7C5FDFEF7A8FA5E
:1049A0004FF4784547F6EF34FC4BFDA25A213220F4
:1049B000CDE90045FDF7D1FFCDE90054FB4BFCA24A
:1049C000B4213920FDF7C9FFCDE90054FC4BFDA20D
:1049D000E6214620FDF7C1FFCDE90054F84BFDA2CA
:1049E000F0215A20FDF7B9FF7CBD70B50024FC48CA
:1049F000FEF745FA0546FA48FFF752FB00B9C8240E
:104A0000F7484FF48041123890F90020AA4242D072
:104A1000057090F90120954213D090F9032095423A
:104A20002BD090F90420954221D090F9072095428F
:104A30000DD090F90520954213D090F902209542AF
:104A400001D101242AE090F90920954201D10624E0
:104A500024E090F90820954215D090F90B2095425A
:104A600001D104241AE090F90A20954201D10324CF
:104A700014E090F90C20954201D102240EE090F947
:104A80000620954201D1052408E090F90D008542E9
:104A900001D1072402E01CB1C82C01D0D14801E0AB
:104AA000D048801C0180204670BD7CB5CC4B0446AC
:104AB0001B1F217818786288884202D1588890425A
:104AC00001D0012000E0002019705A8000281BD07E
:104AD000C5A1C84800F070FD4FF6FF750026CDE96E
:104AE0000065B24BC34A68217320FDF736FF227878
:104AF000C1A1C04800F060FDCDE90065AB4BBD4AE7
:104B0000BE21A520FDF729FF7CBD2DE9FE4F002524
:104B10004FF6FF7738460295FDF705FDFEF7E8F9F9
:104B2000B44C0120203C4FF05A08208040F217106E
:104B30006080A4F804802720E0804FF47846268126
:104B400065812583DFF878924FF0080AC4F8149045
:104B5000A4F80CA02046FEF7E9F8A14912394870E4
:104B60009420208040F217106080A4F80480272051
:104B7000E08047F6EF30208165812583C4F81490EA
:104B8000A4F80CA02046FEF7D1F895494FF0190B78
:104B900012394FF017090873A4F800B0A4F8028086
:104BA0004FF01208A4F80480A4F8069065814FF035
:104BB0000C0AA4F80CA001F11A00E0612046FEF7EF
:104BC000B5F8874912398872A4F800B07320608064
:104BD000A4F80480A4F806906581A4F80CA001F262
:104BE0005630E0612046FEF7A1F87D491239C872BF
:104BF000A4F800B0AF206080A4F80480A4F8069068
:104C00006581A4F80CA001F11A00E0612046FEF7CE
:104C10008DF8734912390872A4F800B0C82060807A
:104C2000A4F80480A4F806906581A4F80CA001F211
:104C30005630E0612046FEF779F86949123948722A
:104C4000FEF70DF9664812384078FEF739F9CDE9DC
:104C5000005640F221145A4B6AA221460B20FDF760
:104C60007CFECDE9005640F22F18554B67A2414615
:104C70000920FDF772FE47F6EF30CDE90050504BAA
:104C800065A22146A220FDF768FE47F6EF30CDE988
:104C900000504B4B62A24146A020FDF75EFE434B05
:104CA00062A214211E20CDE90067FDF756FE3F4B9E
:104CB00061A228214120CDE90067FDF74EFECDE934
:104CC00000573F4B60A269213720FDF746FECDE932
:104CD00000573B4B60A2BE213720FDF73EFE02A8E5
:104CE000FFF7E3FEBDE8FE8F2DE9F04F05460178A2
:104CF0005F4885B00278914201D0012200E0002295
:104D000095F9049090F90440A14501D0012300E0F9
:104D10000023029395F9037090F903309F4201D06C
:104D2000012300E00023039395F8028083789845DF
:104D300001D0012300E000230493EE88C3889E4243
:104D400001D0012300E000239B462C8903899C426B
:104D500001D0012300E000239A466B7890F801C04F
:104D6000634502D04FF0010C01E04FF0000C80F8D9
:104D700002800481C680C77080F80490017043707F
:104D800052EA0C024FF6FF764FF6E43705D00C4B93
:104D90004FF4FC6401B16DE072E08BE0BC000020D8
:104DA000536B7952756E6E6572000000B40000207E
:104DB0004361626C652043616D65726100000000B3
:104DC000AC000020507265737320616E797768655E
:104DD00072650000546F20626567696E0000000014
:104DE000BC010020181802403A2564646D20202080
:104DF00020200000400C00203A25642020202020A4
:104E0000000000002020204D61696E0020205363C7
:104E10007265656E0000000020202053656E6400FE
:104E20002020436F6E666967000000004361626C7A
:104E3000652043616D000000436F6E66696775729F
:104E40006174696F6E0000004361626C65200A6CDA
:104E5000656E6768740000004D6F746F7227732071
:104E60000A616363656C65726174696F6E0000004E
:104E70003C080020CDE900460321FDA2502004E0BB
:104E8000CDE90076FCA203215020FDF766FD68788D
:104E900040B9287830B1CDE900460F21F84BF9A28E
:104EA000502005E0CDE90076F54BFAA20F21502005
:104EB000FDF753FD04984FF00008B0B1AA78F9A1AE
:104EC000FA4800F079FBEE4B4446AFF2D002CDE950
:104ED00000860321D020FDF740FDCDE90046E84BD8
:104EE000F24A0321D020FDF738FD039820B395F94D
:104EF0000300E34B002801DAEDA200E0EFA2CDE9C8
:104F0000008634210A20FDF728FD95F90320E5A14C
:104F1000E64800F051FBCDE900864446D84BEAA2B2
:104F200064211220FDF719FDCDE90046D44BDF4A7C
:104F300064211220FDF711FDBBF1000F15D0EA88A6
:104F4000E3A1DA4800F038FBCDE900864446CC4BBB
:104F5000DDA285211220FDF700FDCDE90046C84BFA
:104F6000D24A85211220FDF7F8FC0298B0B195F9DC
:104F70000420D9A1CD4800F01FFBCDE900864446AE
:104F8000BF4BD1A285215F20FDF7E7FCCDE90046AC
:104F9000BB4BC64A85215F20FDF7DFFCBAF1000F4D
:104FA0007AD0AD244FF48479CDE90086A1B2B44B18
:104FB000CBA20A20FDF7D1FC0D344C45F4DD287A54
:104FC000AD24800708D5CDE90076AD21AC4BCCA24D
:104FD0000A20FDF7C2FCBA24287A000708D5CDE9DB
:104FE00000762146A64BCDA20A20FDF7B6FC0D3473
:104FF000287AC00608D5CDE900762146A04BC0A28C
:105000000A20FDF7AAFC0D34287A800608D5CDE9E0
:10501000007621469A4BC9A20A20FDF79EFC0D346A
:10502000287A400708D5CDE900762146944BC9A2DD
:105030000A20FDF792FC0D34287AC00708D0CDE98C
:10504000007621468E4BC7A20A20FDF786FC0D3460
:10505000287A000608D5CDE900762146884BC7A2FC
:105060000A20FDF77AFC0D34288910F4407F08D01F
:10507000CDE900762146824BC9A20A20FDF76DFCDE
:105080000D34287A400607D5CDE9007621467C4BC1
:10509000CBA20A20FDF761FC05B0BDE8F08F2DE939
:1050A000F04FCC4885B002AB07C883E807004FF645
:1050B000FF70FDF738FAFDF71BFF7C4C9420203C75
:1050C0004FF05A0A208040F217106080A4F804A024
:1050D0004FF0270BA4F806B04FF478462681002540
:1050E00065812583664860610820A0812046FDF720
:1050F0001DFEB94912274FF01708887055202080EF
:1051000028206080A780A4F8068065814FF00C09F4
:10511000A4F80C9001F11A00E0612046FDF706FEAC
:10512000AD49C8706920208028206080A780A4F83D
:1051300006806581A4F80C9001F25630E0612046AB
:10514000FDF7F4FDA4494FF05008142708714620DC
:105150002080A4F80280A780E780268165819FA037
:1051600020612583DFF87892C4F81490A581204649
:10517000FDF7DCFD984948715D202080A4F802808D
:10518000A780E7804FF6FF702081658195A02061A0
:105190002583C4F81490A5812046FDF7C7FD8E49EC
:1051A000887174202080A4F80280A780E78026817F
:1051B00065818DA020612583C4F81490A5812046C7
:1051C000FDF7B4FD844947F6EF37C871032020800E
:1051D00040F217106080A4F804A0A4F806B027815C
:1051E00065812583264860610820A0812046FDF75F
:1051F0009DFD79494873FDF732FE4FF6FF70CDE90A
:1052000000607A4B7AA21E21B420FDF7A6FB4FF670
:10521000FF70CDE900501A4B7CA203210520FDF759
:105220009CFB4FF6FF70CDE90050154B7AA203218D
:10523000B420FDF792FB4FF6FF70CDE90050104B04
:1052400077A228210A20FDF788FB4FF6FF70CDE9F1
:1052500000500B4B75A24B210A20FDF77EFB4FF649
:10526000FF70CDE900507821054B74A20A20EBE0D5
:105270004F6E6C696E6520004F66666C696E6500E6
:10528000AC000020436F6E6E65637465642020205F
:10529000202000004E6F7420636F6E6E656374652E
:1052A000642000002564252500000000400C00203B
:1052B0004261636B7761726400000000466F727731
:1052C00061726420000000002020202020202000A7
:1052D0002564646D00000000202025642525000061
:1052E00020202020202020202020202020202020BE
:1052F000202020202020202020202020200000000E
:105300002D426174746572792074656D7065726187
:105310007475726520686967680000002D4D6F74B0
:105320006F7220666F7263657320746F207265619F
:105330006368207370656564000000002D4F627320
:105340007461636C65206F6E2074686520636162B0
:105350006C6500002D42617474657279206C6F7702
:10536000000000002D456E64206F66206361626C52
:105370006520726561636865640000002D4F746884
:10538000657220696E7465726661636573207472FC
:10539000790A20746F20636F6E6E6563740000007D
:1053A0002D436F6D6D756E69636174696F6E2065F5
:1053B00072726F72206F6363757265640000000023
:1053C0002D496E20656D657267656E637920737413
:1053D0006F70000004820008AA0100202B0000006A
:1053E000B40000204F0000002D000000BC00002091
:1053F000530A6B2D520A792D750A20206E0A20203F
:105400006E0A2020650A2020720000004361626C51
:105410006543616D3A0000004261743A000000008B
:10542000446972656374696F6E3A000041736B651D
:10543000640A53706565643A00000000506F736938
:1054400074696F6E3A000000FDF787FA4FF6FF703F
:10545000CDE900501C4B1DA278215020FDF77DFAAC
:105460004FF6FF70CDE90050174B1CA2A0210A2077
:10547000FDF773FACDE9005640F22114124B19A240
:105480002146A220FDF769FACDE9005640F22F1619
:105490000D4B16A23146A020FDF75FFACDE900576B
:1054A000094B14A221460A20FDF757FACDE900570F
:1054B000054B13A231460A20FDF74FFA02A8FFF769
:1054C00013FCE9E570470000AC00002041637475EF
:1054D000616C2073706565643A0000004572726FFC
:1054E00072733A0020436F6E6669670020536372DF
:1054F00065656E0020436F6E6E656374000000008A
:105500002F446973636F6E6E6563740070B50646F1
:1055100000F0DAF8056806F10B0020F00704B44249
:105520009CBF002070BD2B466A68BAB11068A042CB
:1055300010D304F1080188423CBF5068586007D37B
:105540005168101941601168091B016058601460AE
:10555000101D70BD13465268002AE7D12146284627
:1055600000F0BAF80028DED170BD70B50446051F02
:1055700000F0AAF80068002C14BF446870BD002C2D
:1055800018BFAC423CBF20466468F8D301680A18D3
:10559000AA4218BF456003D12A680546114401603C
:1055A00028684119A1421CBF6C6070BD61686960C8
:1055B00021680844286070BD0FB41CB5074B06AACB
:1055C0007B4469460090059800F02FF90020694659
:1055D00000F03EF91CBC5DF814FB00008D020000D9
:1055E0002DE9F0410E460446002020622046E16885
:1055F000884730B3252805D0D4E901219047206A97
:10560000401CF2E7E168204600278847050018D0D3
:10561000A5F14100192802D820354FF40067324621
:10562000294620462760FAF71BFE40B1012804D026
:10563000F61D26F007060836D8E7361DD6E72846B9
:10564000DAE7206ABDE8F0812DE9F0410646002442
:1056500010687529314616A510D0AFF300800028D8
:1056600002DA404213A507E031688A0701D512A586
:1056700002E0490704D511A5012401E0AFF3008041
:1056800000210A2206F1240709E0B0FBF2FCB0FB7E
:10569000F2F302FB1C00303078541846491C0028F5
:1056A000F3D123462A463046BDE8F04100F05EB80B
:1056B000000000002D0000002B0000002000000072
:1056C000704770477047000000487047680C002022
:1056D000704770477047704738B504460A46002047
:1056E0006946AFF30080002808BF38BD0246009924
:1056F000204600F0B7F8012038BD012000F0CCB8FA
:10570000F8B5AFF30080054600200C46102000BF1E
:105710000646A819A0420DD9324669460020AFF3CB
:105720000080070008BF00F0B7F80098A04218BF3B
:105730000546C419FFF7C8FF05600746F01D20F0B5
:1057400007004619284600F00AF8B44208BFF8BD21
:10575000A21B31463868BDE8F84000F083B800214C
:105760000160C0E901107047102070472DE9F04733
:105770000D4699469246044600F1240801688806C1
:1057800004D5E06921F01001216000E00120A84269
:1057900001DD471B00E00027A1697A1902EB09002F
:1057A000081AA0612078C00602D42046AFF300801A
:1057B000002608E0D4E901211AF806009047206A83
:1057C000401C761C20624E45F4DB2078C0060AD5CA
:1057D0002046AFF3008006E0D4E901213020904755
:1057E000206A401C2062381EA7F10107F4DC07E0A4
:1057F000D4E9012118F805009047206A401C206276
:10580000281EA5F10105F3DC2046AFF300802078C7
:10581000000602D50220BDE8F0870120FBE700006A
:1058200001694A1C02610878704700B58FB0CDE964
:1058300001310021059105497944CDE90310114654
:105840006846FFF7CDFE0FB000BD0000E5FFFFFF8B
:105850000A6802F8010B0A607047000000487047B0
:10586000600C0020034640688C46002818BF884220
:105870003CBF03464068F8D318681844884207D0F4
:105880000CF1030020F00700001D411A521A0146D6
:10589000081D0A60FFF769BE10B500F039F8BDE8D1
:1058A000104000F02FB870477546FFF7D7FFAE469F
:1058B00005006946534620F00700854618B020B51C
:1058C000FAF7FAFCBDE820404FF000064FF0000761
:1058D0004FF000084FF0000B21F00701AC46ACE898
:1058E000C009ACE8C009ACE8C009ACE8C0098D4605
:1058F000704710B50446AFF300802046BDE8104065
:10590000FAF7C6BC002801D000F02AB870470000A2
:1059100010B5012805D0002103A000F027F80120D0
:1059200010BD09A1F8E7000053494752544D454DB9
:105930003A204F7574206F662068656170206D6530
:105940006D6F7279000000003A2048656170206D2B
:10595000656D6F727920636F727275707465640023
:1059600001491820ABBEFEE72600020070B50546CF
:105970000C460A2000E06D1C00F011F835B12878C3
:105980000028F8D102E0641C00F009F814B1207876
:105990000028F8D1BDE870400A20AFF3008008B5B8
:1059A00069468DF800000320ABBE08BD4FF0407083
:1059B000E1EE100A70470000000000000000000047
:1059C00000000000000000000000001000100010A7
:1059D000001000100010000000100000000000285F
:1059E0000028002800000000000000000000000067
:1059F000000000240024007C00240048007C0048B3
:105A00000048000000000038005400500038001426
:105A100000540054003800100000002000540058CA
:105A2000003000280054001400080000000000109E
:105A3000002800280010003400480048003400000E
:105A40000000001000100010000000000000000026
:105A500000000000000000080010002000200020CE
:105A60000020002000200010000800200010000886
:105A700000080008000800080008001000200010BE
:105A800000380010002800000000000000000000A6
:105A900000000000000000100010007C001000104A
:105AA00000000000000000000000000000000000F6
:105AB00000000000001000100010000000000000B6
:105AC000000000000038000000000000000000009E
:105AD00000000000000000000000000000100000B6
