:020000040800F2
:10000000200800204D020008011600080316000811
:100010000516000807160008091600080000000071
:100020000000000000000000000000000B160008A7
:100030000D160008000000000F1600081316000837
:1000400067020008670200086702000867020008EC
:1000500067020008670200086702000867020008DC
:1000600067020008670200086702000867020008CC
:1000700067020008670200086702000867020008BC
:1000800067020008670200086702000867020008AC
:10009000670200086702000867020008670200089C
:1000A000670200086702000867020008670200088C
:1000B000670200086702000867020008670200087C
:1000C000670200086702000867020008670200086C
:1000D0006702000847120008591200087112000850
:1000E000670200086702000867020008670200084C
:1000F000670200086702000867020008670200083C
:10010000670200086702000867020008670200082B
:1001100089120008A112000867020008670200089F
:10012000670200086702000867020008670200080B
:1001300067020008670200086702000867020008FB
:1001400067020008670200086702000867020008EB
:10015000670200086702000867020008B51200087D
:1001600067020008670200086702000867020008CB
:1001700067020008670200086702000867020008BB
:100180006702000867020008CD120008E5120008A7
:10019000670200086702000867020008670200089B
:1001A00067020008670200086702000800F002F812
:1001B00000F03CF80AA090E8000C82448344AAF1C5
:1001C0000107DA4501D100F031F8AFF2090EBAE8C3
:1001D0000F0013F0010F18BFFB1A43F0010318477B
:1001E0005816000078160000103A24BF78C878C16D
:1001F000FAD8520724BF30C830C144BF04680C602D
:10020000704700000023002400250026103A28BF74
:1002100078C1FBD8520728BF30C148BF0B60704778
:100220001FB501F004FB1FBD10B510BD01F0C5FAEC
:100230001146FFF7F5FF01F0C1F901F0E3FA03B44D
:10024000FFF7F2FF03BC01F0EBFA0000094880471A
:1002500009480047FEE7FEE7FEE7FEE7FEE7FEE7A8
:10026000FEE7FEE7FEE7FEE704480549054A064BC0
:1002700070470000DB160008AD01000820020020D6
:1002800020080020200400202004002028490843E2
:1002900028490860704730B50F23C27801780125DE
:1002A000FAB1244A126801F1E02102F4E062C2F5D9
:1002B000E062C2F30722C2F10404D3404278A240B4
:1002C00084781C401443220181F80024007800F057
:1002D0001F018D404009800000F1E020C0F800516E
:1002E00030BD01F01F0085404809800000F1E0208A
:1002F000C0F8805130BD104A114001430D48001F25
:10030000016070470B4A121D0029116801D001439A
:1003100000E08143116070474FF0E0210428086934
:1003200003D020F004000861704740F00400FAE7B1
:100330000000FA050CED00E080FFFF1FF94801689E
:1003400041F001010160F74A0021083211600268A2
:10035000F54B1A400260031DF44A1A60F14BF44A4F
:1003600084331A60F14A103A1B1D1A60026822F4A5
:1003700080220260EB480C300160181D016070475C
:10038000E8490022891C0A70087070470246002064
:10039000510901290CD002290CD0E24974310968B5
:1003A00002F01F02012393400B4200D0012070474E
:1003B000DC49F4E7DB497031F1E718B500204FF470
:1003C000A04400903120FFF7E1FF0099491C009103
:1003D000A14201D00028F5D03120FFF7D7FF002837
:1003E00000D0012018BDCF4A116821F0F80141EA80
:1003F000C00010607047CF4908607047C9490022AB
:1004000070310A700A70012802D0042801D1052039
:1004100008707047C8490860704741EA82115A085D
:1004200010B5C64B029C03EB02421143014341EA63
:100430000460BC49091D086010BDBE4908667047CC
:10044000800140EA0160B74940EA027084310860E7
:100450007047B84988667047800140EA0160B14939
:1004600040EA0270883108607047B24908677047F7
:10047000B049C8647047AB4B08331A68084322F090
:10048000EC62104318607047A64B08331A680843A3
:1004900022F07842104318607047A24A083211686F
:1004A00021F003010143116070479E480830006845
:1004B00000F00C0070479B4A0832116821F0F001EF
:1004C000014311607047974A0832116821F4E051E6
:1004D000014311607047934A0832116821F460416A
:1004E00041EAC0001060704770B58E4B0833196840
:1004F000934C11F00C0104D06610042903D0082994
:1005000003D004601BE0066019E0864A121D1168E2
:10051000C1F38055116801F03F0115B1B6FBF1F14F
:1005200001E0B4FBF1F114681268C4F3881461436C
:10053000C2F30142521C5200B1FBF2F10160196892
:100540000F2202EA11117F4A545C0168E1404160C8
:100550001C68072505EA9424145D21FA04F48460DC
:100560001B6805EA5333D25CD140C16070BDC0F353
:100570000121032908D16B4B08331968724A21F411
:10058000F81102400A431A60664970310A68C0F3E4
:100590000B0002430A60704767494439086070479E
:1005A00065494039086070476249C1F85C0170478D
:1005B0005C4A8C32116821F440110143116070478C
:1005C000584A8C32116821F4400101431160704790
:1005D000544A8C321168401E21F01F010143116002
:1005E0007047504A8C3211686FF0FF0321F4F851C4
:1005F00003EB00200843106070474A4A8C321168B0
:1006000021F440310143116070475049C1F8E001C5
:100610007047444A30320029116801D0014300E09C
:100620008143116070473F4A34320029116801D07C
:10063000014300E08143116070473A4A3832002993
:10064000116801D0014300E0814311607047354AD1
:1006500040320029116801D0014300E0814311605C
:100660007047304A44320029116801D0014300E04C
:100670008143116070472B4A10320029116801D064
:10068000014300E0814311607047264A143200297B
:10069000116801D0014300E0814311607047214A95
:1006A00018320029116801D0014300E08143116034
:1006B00070471C4A20320029116801D0014300E034
:1006C000814311607047174A24320029116801D014
:1006D000014300E0814311607047124A5032002903
:1006E000116801D0014300E08143116070470D4A59
:1006F00054320029116801D0014300E081431160A8
:100700007047084A58320029116801D0014300E0BF
:10071000814311607047034A60320029116817D085
:10072000014316E000380240FFFFF6EA10300024D3
:100730000030002000004742800E47420000FFFFCB
:100740000024F40000000020FFFCFF0F00104742CF
:10075000814311607047194A0029116801D0014393
:1007600000E081431160704714490C31012808688A
:1007700003D020F008000860704740F00800FAE756
:100780000E4A573A0029117801D0014300E0814315
:100790001170704709481030016841F080710160A4
:1007A00070470146054A0020583A12680A4200D0B4
:1007B000012070470149563908707047643802407B
:1007C000CD4910B5884206D101211020FFF77BFFEB
:1007D0000021102020E0C949884202D101214C04A7
:1007E00029E0C749884202D101218C0423E0C54990
:1007F000884202D10121CC041DE0C349884202D1C4
:1008000001210C0517E0C149884209D101212020AE
:10081000FFF759FF00212020BDE81040FFF753BF2C
:10082000BB49884202D101218C0704E0B9498842C2
:100830000AD1012144052046FFF73BFF2046BDE8D1
:1008400010400021FFF735BF10BD7FB50446008A78
:100850000D46C98820F4405001432182A08941F20D
:100860000C618843A9882A8911436A89024311438C
:10087000A181A08A20F44071A8890843A08268461B
:10088000FFF732FE9C48844202D0A048844201D146
:10089000039800E00298A189090400EBC00101EB74
:1008A0000010296801D5490000E08900B0FBF1F093
:1008B0006422B0FBF2F109010B096FF018056B43DC
:1008C00000EB8300A3891D044FF0320306D503EB30
:1008D000C000B0FBF2F000F0070005E003EB0010F1
:1008E000B0FBF2F000F00F00084320817FBD4FF411
:1008F0001651016000218180C18001810C2242815A
:100900008181704710B5028A4C8822F470630A888E
:1009100022438C88C9880C4322431A43028210BDAB
:100920000021018041808180C18070470029818938
:1009300002D041F4005101E021F40051818170475F
:10094000028B02F47F420283028B0A4302837047C8
:100950000029818902D041F4004101E0C1F30E0178
:10096000818170470029818A02D041F4006101E051
:1009700021F4006181827047C1F3080181807047D2
:100980008088C0F308007047028A22F00F020282BA
:10099000028A0A43028270470029818902D041F00D
:1009A000020101E021F0020181817047828922F475
:1009B0000062828182890A4382817047028A22F022
:1009C00020020282028A0A43028270470029018AB9
:1009D00002D041F4804101E021F48041018270475E
:1009E000818941F00101818170470029818A02D00B
:1009F00041F0080101E021F0080181827047028B7B
:100A0000D2B20283028B42EA01210183704700299E
:100A1000818A02D041F0200101E021F02001818291
:100A200070470029818A02D041F0100101E021F0D5
:100A3000100181827047828A22F004028282828AB7
:100A40000A43828270470029818A02D041F0020164
:100A500001E021F0020181827047002A828A01D0E0
:100A60000A4300E08A438282704710B5C1F3421303
:100A700001F01F040121A140012B07D0022B07D058
:100A80001430002A026805D00A4304E00C30F8E76D
:100A90001030F6E78A43026010BD0246002012883B
:100AA0000A4200D001207047C9430180704770B5E9
:100AB00001F01F0501260024C1F3421306FA05F2D6
:100AC000012B0FD0022B0FD0838A4FEA112100880F
:100AD000134206FA01F600EA060001D000B1012433
:100AE000204670BD8389F0E7038AEEE70A0A0121F8
:100AF0009140C9430180704700100140004400400C
:100B000000480040004C00400050004000140140EC
:100B100000780040007C0040FE4A0146904200D12F
:100B20000020FD4A914200D10120FC4A914200D1AF
:100B30000220FB4A914200D10420FA4A914200D19E
:100B40000520F94A914200D10620F84A914200D18D
:100B50000720F74A914200D10820704770471CB522
:100B600030B1032803D10821F148FFF7F7FF1CBD7E
:100B700008210320CDE90001014601230022ED48B0
:100B800000F02FFC1CBD1CB50822032140B1012838
:100B90000ED0032803D10821E448FFF7DFFF1CBD76
:100BA000CDE90012012300224FF4C071E14805E0B5
:100BB000CDE9001201230022C021DF4800F011FC22
:100BC0001CBD1CB50822032140B101280DD003280B
:100BD00003D10821D448FFF7C1FF1CBDCDE90012A5
:100BE00001230022C021D54806E0CDE900120123EF
:100BF00000224FF48441D24800F0F3FB1CBD7CB5C9
:100C000030B1032803D10821C648FFF7A7FF7CBDF8
:100C100008250324012300221903C848CDE9004513
:100C200000F0DFFB012300220421C648CDE9004586
:100C300000F0D7FB7CBD1CB50822032140B1012880
:100C40000DD0032803D10821B548FFF787FF1CBD4D
:100C5000CDE90012012300220321BB4806E0CDE9C3
:100C60000012012300224FF44061B44800F0B9FBA8
:100C70001CBD1CB507220323990250B101280ED0D8
:100C8000022812D0032803D10721A448FFF766FFEA
:100C90001CBDCDE9003201230022AC480CE0CDE9B7
:100CA000003201230022A54806E0CDE900320123ED
:100CB00000224FF44071A34800F093FB1CBD1CB50B
:100CC0000722032140B101280DD0032803D10721B9
:100CD0009148FFF743FF1CBDCDE90012012300221C
:100CE0000C21994805E0CDE9001201230022602182
:100CF000944800F076FB1CBD1CB50722032140B1CF
:100D000001280ED0032803D107218248FFF726FFD0
:100D10001CBDCDE90012012300224FF4C0618A48B6
:100D200005E0CDE9001201230022C021874800F030
:100D300058FB1CBD774A0146904200D18448764A50
:100D4000914201D182481030744A914201D18048C9
:100D50002030734A914201D17D483030714A91422E
:100D600001D17B484030704A914201D178485030DF
:100D70006E4A914201D1764860306D4A914201D16C
:100D80007348703070472DE9FF4F87B09846DDE912
:100D9000149B13460446DDF85CA0FFF7CBFF054625
:100DA0005C486C4F0193844209D1386840F01000D0
:100DB00038600898FFF7A0FF25208DF80000654EE9
:100DC0005548361F844209D1306840F40030306005
:100DD0000898FFF774FF26208DF800004F488442E2
:100DE00009D1306840F4802030600898FFF741FF57
:100DF00027208DF800004A48844209D1306840F429
:100E0000002030600898FFF716FF34208DF80000AE
:100E10004448844209D1306840F48010306008981A
:100E2000FFF7EDFE35208DF800003F48844209D1E0
:100E3000386840F0200038600898FFF7C2FE47206D
:100E40008DF800003948844209D1306840F0804074
:100E500030600898FFF797FE52208DF80000344864
:100E6000844209D1306840F0004030600898FFF7B4
:100E700076FE53208DF800002046FFF7A1FC0126E6
:100E80008DF8036006208DF801002046FFF744FE30
:100E90008DF802006846FFF7FEF91698ADF80A00D3
:100EA000ADF80E90ADF81080ADF80CB0ADF808A01C
:100EB0000020287340F6FF700590411E059101D374
:100EC0000846FAE701A92046FFF7BFFCA08940F0D9
:100ED0002000A0812E73A08940F40050A0810BB0A7
:100EE000BDE8F08F2DE9FF4104460A4800250C2695
:100EF00017468846844206D1CDE900650295002355
:100F00000395FFF740FF044884422BD1CDE90065EB
:100F1000029521E0001001400044004000480040DC
:100F2000004C004000500040001401400078004098
:100F3000007C004000100240001402400008024003
:100F400000180240000C0240000002400004024071
:100F5000100000204438024000233A4641460395E1
:100F6000FFF711FFE548844208D1CDE900650295FD
:100F700000233A4641460395FFF705FFE0488442C7
:100F800008D1CDE90065029500233A464146039514
:100F9000FFF7F9FEDB48844208D1CDE900650295F0
:100FA00000233A4641460395FFF7EDFED6488442BA
:100FB00008D1CDE90065029500233A4641460395E4
:100FC000FFF7E1FED148844208D1CDE900650295E2
:100FD00000233A4641460395FFF7D5FECC488442AC
:100FE00008D1CDE90065029500233A4641460395B4
:100FF000FFF7C9FEBDE8FF812DE9FF470446C5485C
:1010000000250C261F4690468946844205D1CDE92D
:10101000006502950395FFF7B6FEBF48844208D1EC
:10102000CDE9006502953B46424649460395FFF7E8
:10103000AAFEB248844208D1CDE9006502953B463C
:10104000424649460395FFF79EFEAD48844208D1CB
:10105000CDE9006502953B46424649460395FFF7B8
:1010600092FEA848844208D1CDE9006502953B462E
:10107000424649460395FFF786FEA348844208D1BD
:10108000CDE9006502953B46424649460395FFF788
:101090007AFE9E48844208D1CDE9006502953B4620
:1010A000424649460395FFF76EFE9948844208D1AF
:1010B000CDE9006502953B46424649460395FFF758
:1010C00062FEBDE8FF8710B50023FFF733FEC1883D
:1010D00019B902894489A2420DD0428983889A4273
:1010E00001D100224281036892B29B56521C428178
:1010F00009B1491EC180D8B210BD10B50C46FFF72A
:1011000019FEC38842890DE08188914200D10022F6
:101110000168895CA14201D1012010BD521C5B1EF7
:1011200092B29BB2002BEFD1002010BDF0B5164655
:101130000F4684460024FFF7FDFD0546C08840B1F8
:10114000697B6046FFF7D9FF78B9E888A9888842AB
:101150000BD00020F0BD6046FFF7B5FF3855697B26
:10116000884205D0641CA4B200E0761EB442F2DBD3
:101170000021641CA0B23954F0BD00B5FFF7DAFDC0
:10118000C18829B901894089814201D1012000BD6E
:10119000002000BD00B5FFF7CDFDC18880888142E9
:1011A00001D1012000BD002000BD00B5FFF7C2FD48
:1011B0000021C1800181418100BD00B50B46FFF7D0
:1011C000B9FD437300BD10B50C460346FFF7B2FDF1
:1011D000007B00280BD007E019880906FCD5988011
:1011E000641C18880006FCD520780028F4D110BDB6
:1011F00070B515460E460446FFF79CFD007B00289F
:101200000DD0002309E020880006FCD5F05CA0800A
:1012100020880006FCD55B1C9BB2AB42F3D370BDAB
:10122000C388828893420DD20389934201D1002260
:10123000028103890268D1540189491C0181C18856
:10124000491CC180704733480188890603D58088CE
:10125000C1B23248E4E770472F480088800606D5BF
:101260002D48001D0088C1B22C481030D8E77047C7
:1012700022480088800606D52048001D0088C1B29B
:1012800026482030CCE770471D480088800606D5E8
:101290001B48001D0088C1B220483030C0E77047AD
:1012A00018480188890604D58088C1B21B4840309F
:1012B000B6E7704714480088800606D51248001D1E
:1012C0000088C1B215485030AAE770470F4800881F
:1012D000800606D50D48001D0088C1B20F48603059
:1012E0009EE770470A480088800606D50848001D1A
:1012F0000088C1B20948703092E77047004800404A
:10130000004C0040005000400014014000780040B4
:10131000007C00400010014000440040100000200C
:10132000A3490844C0F38F2070472DE9F04F9A4637
:10133000DDE909B889460346FFF7F2FFC5B2002090
:101340004FF0030E0121814011EA090F28D0994E78
:1013500036F815400C4326F81540DF6844000EFAB5
:1013600004F6B7430BFA04FC47EA0C07DF601F687A
:1013700002FA04FCB74347EA0C071F60012A01D0B8
:10138000022A0DD15F6889B28F430AFA00F189B24F
:101390000F435F60996808FA04F4B14321439960F0
:1013A000401CC0B21028CDD3BDE8F08F00B5FFF7C8
:1013B000B7FF01218140804802681143016000BDF0
:1013C000FCB51646DDE907C50C00074608D0FFF757
:1013D000EDFFCDE900C5324621463846FFF7A5FFAF
:1013E000FCBD2DE9FC4F9946DDE90BB792460D0097
:1013F000064622D0FFF7DAFF002201214FF00F0C42
:1014000001FA02F028420DD0D00806EB8003186ADA
:101410005407E40E0CFA04F820EA080007FA04F472
:1014200020431862521C102AEAD3CDE9009B534690
:10143000022229463046FFF778FFBDE8FC8FF0B561
:101440000E460546FFF76CFF00225A49C4B24FF022
:10145000010C03270CFA02F333420CD028684FEA40
:10146000420E07FA0EFE40EA0E00286031F8140022
:10147000984321F81400521CD2B2102AEAD3F0BDCE
:10148000F0B500220125032605FA02F30B4205D030
:101490000468570006FA07F39C430460521CD2B25A
:1014A000102AF1D3F0BDF0B500220127032607FA78
:1014B00002F33C460B4208D00568530006FA03FCD1
:1014C00025EA0C059C4025430560521CD2B2102A27
:1014D000EDD3F0BDF0B500220125032605FA02F395
:1014E0000B4205D00468570006FA07F31C4304605A
:1014F000521CD2B2102AF1D3F0BDF0B50022012661
:101500000324022706FA02F30B4209D005685300B0
:1015100004FA03FC25EA0C0507FA03F31D430560F2
:10152000521CD2B2102AEDD3F0BDF0B50023012732
:10153000032507FA03F40C4209D0C6685C0005FADB
:1015400004FC26EA0C0602FA04F42643C6605B1C7F
:10155000DBB2102BEDD3F0BD41F48032C261C1612A
:10156000C261C169C0697047002102E0491C89B2AB
:1015700040080128FAD80846704700B5FFF7D0FEAA
:10158000012181400C4802688A43026000BD00B519
:10159000FFF7C6FE074931F8100000BD00B5FFF7A0
:1015A000BFFE044931F81000C04380B200BD000006
:1015B0000000FEBFA4010020303802409AB000F0C5
:1015C0008CF80A4C4FF4E13201212046FFF78AFCE7
:1015D00007A107E0642269462046FFF7A7FD00281F
:1015E000F8D069462046FFF7EEFDF3E70010014012
:1015F00048656C6C6F20776F726C640A00000000A5
:101600007047FEE7FEE7FEE7FEE77047704770476A
:10161000704710B5FFF7FCFF10BD00001CB500219E
:101620005B4A00910191106840F4803010604FF4E3
:10163000A043106800F4003001900098401C009016
:10164000019810B900989842F3D11068800342D5F0
:10165000012001904E484030016841F08051016006
:101660004C49086840F44040086049480830036825
:101670000360036843F400430360036843F4A0532A
:101680000360041F444B2360136843F080731360AE
:1016900013689B01FCD50A6842F480320A604A68EC
:1016A000D203FCD50A6842F400320A604A68920309
:1016B000FCD53A4A40F205711160016821F003013E
:1016C0000160016841F0020101600168C1F381011C
:1016D0000229FAD11CBD01911CBD314810B5016829
:1016E00041F4700101602A48016841F00101016084
:1016F000274A00210832116002682A4B1A40026012
:10170000031D294A1A60026822F4802202602048E0
:101710000C300160FFF782FF21494FF000608039F3
:10172000086010BD70B51A4D083528681F4B204958
:1017300010F00C0004D05E10042803D0082803D059
:101740000B601BE00E6019E0114A121D1068C0F317
:101750008054106800F03F0014B1B6FBF0F001E0D7
:10176000B3FBF0F013681268C3F388135843C2F355
:101770000142521C5200B0FBF2F0086028680C4A8B
:10178000C0F30310121D105C0A68C2400A6070BDED
:101790000038024000700040085A4007003C0240F8
:1017A00088ED00E0FFFFF6FE103000240024F40076
:1017B00090000020704770477047754600F02CF885
:1017C000AE4605006946534620F00700854618B02E
:1017D00020B5FEF749FDBDE820404FF000064FF070
:1017E00000074FF000084FF0000B21F00701AC4656
:1017F000ACE8C009ACE8C009ACE8C009ACE8C00975
:101800008D46704710B50446AFF300802046BDE812
:101810001040FEF714BD000000487047BC010020D6
:1018200001491820ABBEFEE72600020070474FF0CA
:101830004070E1EE100A70475818000800000020C0
:10184000A4000000E8010008FC180008A400002023
:101850007C070000040200080000000001020304ED
:101860000102030406070809A4000020200000006C
:1018700000000000000A0000C4000020200000005A
:1018800000000000000A0000E4000020200000002A
:1018900000000000000A00000401002020000000F9
:1018A00000000000000A00002401002020000000C9
:1018B00000000000000A0000440100202000000099
:1018C00000000000000A0000640100202000000069
:1018D00000000000000A0000840100202000000039
:1018E00000000000000A00000095BA0A0000000095
:0C18F000000000000102030406070809C4
:04000005080001AD41
:00000001FF
